0000000001101737963000720000000000000MONSERTEC ENGENHARIA LTDA                                                                                                                             000090036500365210101201429112023291120230907
000000001601012014000002
000000002601012014000002
000000003601012014000801
0000000044010120140009041220201048
000000005601012014000002
000000006601012014000002
000000007601012014000702
0000000084010120140008071220201747
000000009607122020174802
000000010608122020083602
000000011608122020083601
000000012608122020091802
000000013608122020092902
000000014608122020093406
000000015620052022142002
000000016613072022100102
0000000174130720221008130720221009
0000000184130720221023130720221023
000000019613072022150802
0000000202130720221509101737963000720000000000000MONSERTEC ENGENHARIA LTDA                                                                                                                             PV13                                                                                                
0000000215130720221509I010063987101ADAILTON WANDEGA ALMEIDA                            
0000000225130720221509I010789344715RENATO NASCIMENTO CONCEICAO                         
0000000235130720221509I010809051300MARIALDO ARCANJO DOS SANTOS                         
0000000245130720221509I010872996473CARLOS ANTONIO DE SOUSA                             
0000000255130720221509I010873011292MANOEL DA LAPA SILVA FERREIRA                       
0000000265130720221509I012003045092JOSE CARLOS DE SANTANA                              
0000000275130720221509I012031951256ANTONIO RIBEIRO DA SILVA                            
0000000285130720221509I012044247374MARIO JOSELIO JESUS DE SANTANA                      
0000000295130720221509I012049422204JUAREZ BARRETO LEMOS                                
0000000305130720221509I012054738273PEDRO FRANCISCO DE OLIVEIRA FI                      
0000000315130720221509I012079152140EVERALDO BARBOZA LISBOA                             
0000000325130720221509I012079300190JOSE ALVES DE ARAUJO                                
0000000335130720221509I012079311354ANTONIO DECIO SILVA LOPES                           
0000000345130720221509I012089961181EVANDRO DE SANTANA SOUZA                            
0000000355130720221509I012097574515JOSE MOURA                                          
0000000365130720221509I012100241208JOSE COSME DOS SANTOS                               
0000000375130720221509I012107742865EDILSON PORTO DOS SANTOS                            
0000000385130720221509I012118178990VIVALDO DOS SANTOS                                  
0000000395130720221509I012118339609JAIME VIEIRA DE ALMEIDA                             
0000000405130720221509I012121721225ANTONIO MEDRADO ALVES DOS SANT                      
0000000415130720221509I012150518009JORGE PEREIRA DA MOTA FILHO                         
0000000425130720221509I012157458931AMILTON ARAUJO DO NASCIMENTO                        
0000000435130720221509I012176051035DERALDO RODRIGUES DOS SANTOS                        
0000000445130720221509I012176111275ISAIAS BARROS DE LIMA                               
0000000455130720221509I012176111631RAIMUNDO NONATO DE ARAUJO SANT                      
0000000465130720221509I012176911123ANAILSON GOMES ANUNCIACAO                           
0000000475130720221509I012177356271ADEMARIO BARBOSA                                    
0000000485130720221509I012195269768JOSE SEBASTIAO MENEZES COSTA                        
0000000495130720221509I012202416910ALOISIO SANTOS ALVES                                
0000000505130720221509I012202665570JOSE CARLOS DE JESUS SOUZA                          
0000000515130720221509I012222237973OSVALDO DE OLIVEIRA FILHO                           
0000000525130720221509I012240676088JOSE DOS SANTOS ALVES                               
0000000535130720221509I012246300047NADIVALDO DOS SANTOS LIMA                           
0000000545130720221509I012250323463JOSE CARLOS GOMES DA SILVA                          
0000000555130720221509I012260236490AGNALDO SOUSA SANTOS                                
0000000565130720221509I012273686929ANTONIO PEREIRA DA SILVA                            
0000000575130720221509I012273783452JOSE ALBERTO MATOS DE LIMA                          
0000000585130720221509I012273825465JOZIVALDO CAVALCANTE NEPOMUCEN                      
0000000595130720221509I012273894718CARLOS JOSE COSTA                                   
0000000605130720221509I012273939126LUIS AVACY DOS SANTOS LIMA                          
0000000615130720221509I012273941341SILVANO DE MATOS ROQUE                              
0000000625130720221509I012281148485JOSE BATISTA LIMA                                   
0000000635130720221509I012281192417PEDRO DIAS DOS SANTOS                               
0000000645130720221509I012281222022WASHINGTON DA CRUZ SILVA                            
0000000655130720221509I012281223568ALMIR ALVES DE ALMEIDA                              
0000000665130720221509I012281248471JOAO DILSON ASSIS DE LIMA                           
0000000675130720221509I012291156936DARIO MENEZES DE ASSIS                              
0000000685130720221509I012291267169ANTONIO CARLOS DE ANDRADE                           
0000000695130720221509I012291295006JORGE MIRANDA DA SILVA FILHO                        
0000000705130720221509I012291301227REGINALDO DA SILVA MOURA                            
0000000715130720221509I012296576127ROQUE GERALDO DA SILVA FILHO                        
0000000725130720221509I012296615955JOSE CARLOS ROCHA DA SILVA                          
0000000735130720221509I012296959247FLORISVALDO DE JESUS SOUZA                          
0000000745130720221509I012296959972RILDO NORMANDES DE SOUZA SILVA                      
0000000755130720221509I012296960628DAMIAO SALUSTIANO DE JESUS                          
0000000765130720221509I012296973762MARIVALDO DIAS DOS SANTOS                           
0000000775130720221509I012296994182PEDRO PAULO FERREIRA DE OLIVEI                      
0000000785130720221509I012308100925HELIO ALVES BORGES                                  
0000000795130720221509I012311794592JOAO CARLOS GOMES DOS SANTOS                        
0000000805130720221509I012318611493GERSON LUIZ RIBEIRO GOMES                           
0000000815130720221509I012318889947EDILSON SIMOES                                      
0000000825130720221509I012318965279MANOEL CERQUEIRA MASCARENHAS N                      
0000000835130720221509I012321634881RAIMUNDO SANTOS DA CONCEICAO                        
0000000845130720221509I012321719674ROBSON GONCALVES DOS REIS                           
0000000855130720221509I012321869285ROQUE GENIVALDO FIGUEREDO SANT                      
0000000865130720221509I012327328650JOSE ELINALDO SANTOS BISPO                          
0000000875130720221509I012327348309JOSE SILVA FREITAS                                  
0000000885130720221509I012327687006AGINALDO NASCIMENTO DE QUEIROZ                      
0000000895130720221509I012346907040SIDUARTE DE JESUS                                   
0000000905130720221509I012355152480JORGELENE DE JESUS SANTOS                           
0000000915130720221509I012355205754JOSE MARTINS GOMES                                  
0000000925130720221509I012355243818ERUATA EMANUEL LIMA DE JESUS                        
0000000935130720221509I012355287904SAMUEL DOS REIS SILVA                               
0000000945130720221509I012355517713MARIVALDO DA SILVA                                  
0000000955130720221509I012359542399CLAUDIO DE ASSIS                                    
0000000965130720221509I012360435223LEONIDAS DE JESUS FERREIRA                          
0000000975130720221509I012360499752DARIO PEREIRA DE SANTANA                            
0000000985130720221509I012360499787CARLOS DOS SANTOS SILVA                             
0000000995130720221509I012360571658MIGUEL DE OLIVEIRA CARVALHO                         
0000001005130720221509I012360683340ELISIO DAMIAO DOS SANTOS FILHO                      
0000001015130720221509I012362427910ELIELSON NASCIMENTO DE SANTANA                      
0000001025130720221509I012362458646JOSE BISPO DOS SANTOS                               
0000001035130720221509I012374223762VALTER MARTINEZ BITENCOURT                          
0000001045130720221509I012377385836JURACY SILVA DOS SANTOS                             
0000001055130720221509I012377402889ELIEL COSTA DA CRUZ                                 
0000001065130720221509I012377503685EDMILSON SANTOS PAIXAO                              
0000001075130720221509I012377571281ANTONIO CARLOS OLIVEIRA RAMOS                       
0000001085130720221509I012384561598IVANILDO RODRIGUES DE OLIVEIRA                      
0000001095130720221509I012384706146JOSANILTON CONCEICAO DO ROSARI                      
0000001105130720221509I012384706456ANTONIO MARCOS PALMEIRA                             
0000001115130720221509I012384928688SERGIO LUIS SANTOS MOURA                            
0000001125130720221509I012386191836MANOEL MESSIAS NOBRE                                
0000001135130720221509I012394116007NIVALDO SILVA                                       
0000001145130720221509I012395258174MARCIO SALLES SANT ANNA                             
0000001155130720221509I012395259499ANTONIO CARLOS NASCIMENTO DOS                       
0000001165130720221509I012395371450ADAILTON VASCONCELOS ARAUJO                         
0000001175130720221509I012398476652FERNANDO DOS SANTOS FRANCA                          
0000001185130720221509I012398509801RENIVALDO QUEIROZ NASCIMENTO                        
0000001195130720221509I012398513051MAURICIO DE JESUS SOARES                            
0000001205130720221509I012404757220EDVALDO DOS SANTOS                                  
0000001215130720221509I012404767838LUIS VALDICK ESTRELA ARAUJO                         
0000001225130720221509I012404798903NILTON MIRANDA DE JESUS                             
0000001235130720221509I012412954137JOSE CRISPIM DOS SANTOS BARRET                      
0000001245130720221509I012412966755ANTONIO ARIOSVALDO MARTINS PEI                      
0000001255130720221509I012417355207PAULO FREITAS DOS ANJOS                             
0000001265130720221509I012419466707GILMAR DO NASCIMENTO                                
0000001275130720221509I012421467243OVIDIO VALENTIM DE JESUS FILHO                      
0000001285130720221509I012421481556JOSE CARLOS PEREIRA DOS SANTOS                      
0000001295130720221509I012424336425MARCOS LUIZ CARDOSO DE ALMEIDA                      
0000001305130720221509I012425873939FRANCISCO DA SILVA MIRANDA FIL                      
0000001315130720221509I012429798575ADEMIR DA SILVA                                     
0000001325130720221509I012429890390EDMILSON DOS SANTOS                                 
0000001335130720221509I012429964815GILDASIO DE SOUZA SANTOS                            
0000001345130720221509I012429993149MOISES SANTOS ARAUJO                                
0000001355130720221509I012430037140HILARIO SILVA CONCEICAO                             
0000001365130720221509I012430038325JORGE RAMOS DE ASSIS                                
0000001375130720221509I012430108854ROSIVALDO DE JESUS DOS SANTOS                       
0000001385130720221509I012430108889CARLOS ANTONIO DOS SANTOS                           
0000001395130720221509I012430110549ADENILSON DE SOUZA BRANDAO                          
0000001405130720221509I012433553026DULCIVAL DE JESUS GONZAGA                           
0000001415130720221509I012433564699EDSON RIOS DA SILVA                                 
0000001425130720221509I012433645435ANTONIO CARLOS DOS SANTOS                           
0000001435130720221509I012435155923JOSE CARLOS DOS SANTOS                              
0000001445130720221509I012441565836NELSON JOSE DOS SANTOS                              
0000001455130720221509I012445918369MACIEL DA SILVA FERRAZ                              
0000001465130720221509I012445987840ALFREDO FERREIRA DOS SANTOS                         
0000001475130720221509I012445998907ANTONIO MOREIRA GALDINO                             
0000001485130720221509I012445999229DERIVALDO JESUS DE CARVALHO                         
0000001495130720221509I012447936801NATA ALVES DE ASSIS                                 
0000001505130720221509I012449397851EDIMILTON SOUZA SANTOS                              
0000001515130720221509I012449410084MARIO AUGUSTO MENEZES DA SILVA                      
0000001525130720221509I012449410173ADAILTON GONCALVES DOS SANTOS                       
0000001535130720221509I012449412893AGNALDO JURITI BISPO DOS SANTO                      
0000001545130720221509I012449465946ESMERALDO JOAO DA SILVA                             
0000001555130720221509I012449470869ARNALDO DA SILVA OLIVEIRA                           
0000001565130720221509I012449470885JOSE CARLOS DOS SANTOS                              
0000001575130720221509I012453828241RAIMUNDO SANTOS CEU                                 
0000001585130720221509I012453921713EDVALDO CONCEICAO DE SOUZA                          
0000001595130720221509I012453923481JOSE WAU MOREIRA DE SA                              
0000001605130720221509I012453923953ROQUE JACKSON ALMEIDA DE OLIVE                      
0000001615130720221509I012455745661EDSON CLEMENTE DE JESUS OLIVEI                      
0000001625130720221509I012455834400ERLON VALENTIN PORTELA SANTOS                       
0000001635130720221509I012458994778JOSIAS DE SOUSA PEREIRA                             
0000001645130720221509I012459004429OLIVAL MUNIZ VELOSO JUNIOR                          
0000001655130720221509I012459004445ROQUE JESUS DE ALCANTARA                            
0000001665130720221509I012459038560WILSON RODRIGUES INVENCAO                           
0000001675130720221509I012459040328JOSE JIVANILDO LIMA DE OLIVEIR                      
0000001685130720221509I012459040662ELIEZIO ARAUJO FREIRE                               
0000001695130720221509I012459044102JOSE VALERIANO DOS SANTOS SOUS                      
0000001705130720221509I012460798301EDSON DOS SANTOS SANTIAGO                           
0000001715130720221509I012462502515JOSE ELIOSVALDO FREITAS COSTA                       
0000001725130720221509I012466609187CARLOS GERALDO DOREA LIMA                           
0000001735130720221509I012469375179GENIVAL BOMFIM CONCEICAO                            
0000001745130720221509I012475043360FRANCISCO GARCIA DO NASCIMENTO                      
0000001755130720221509I012475173949GILSON DOS SANTOS                                   
0000001765130720221509I012475177537CARLOS EDUARDO DE SOUZA SANTAN                      
0000001775130720221509I012475179661EDVALDO DE JESUS                                    
0000001785130720221509I012475183642CLAUDIO MIRANDA DE SOUZA                            
0000001795130720221509I012475183804ROSENILDO ALVES PIRES                               
0000001805130720221509I012475184053ADILSON ARAUJO BISPO                                
0000001815130720221509I012475187729LUCIANO GOMES DA SILVA                              
0000001825130720221509I012480350861WELLINGTON ALVES DOS SANTOS                         
0000001835130720221509I012481947047MARCELO LUIS PIRES DOS SANTOS                       
0000001845130720221509I012482953261EDIMILSON PEREIRA DE SOUZA                          
0000001855130720221509I012482963631EVANDRO DE JESUS                                    
0000001865130720221509I012482969893ROQUE FLAVIO OLIVEIRA FERREIRA                      
0000001875130720221509I012487394058SIOMAR SA DO AMOR DIVINO                            
0000001885130720221509I012489328893JOAO DA MACENIO FERREIRA DOS S                      
0000001895130720221509I012489335997LUIZ ORLANDO DOS SANTOS                             
0000001905130720221509I012496677083MARCIO SANTOS RIBEIRO                               
0000001915130720221509I012504643456SIRLENE ROSA SANTOS                                 
0000001925130720221509I012504814196REGINALDO DOS SANTOS                                
0000001935130720221509I012504843595LUIS CARLOS SILVA SANTOS                            
0000001945130720221509I012510786034IDEILSON CARLOS DA SILVA SANTO                      
0000001955130720221509I012510837267JAIME BATISTA DAS VIRGENS BISP                      
0000001965130720221509I012511401950ZENILDO ALEXANDRE DE OLIVEIRA                       
0000001975130720221509I012511763585OSVALDO FERREIRA                                    
0000001985130720221509I012513569360JOAO GERALDO DA SILVA JUNIOR                        
0000001995130720221509I012513653612ANTONIO CARLOS CONCEICAO DOS S                      
0000002005130720221509I012513654821FRANCISCO DAS CHAGAS MELO DO N                      
0000002015130720221509I012515364200JUSCELINO DOS SANTOS                                
0000002025130720221509I012518215060GEORGE ANTONIO DE JESUS BARBOS                      
0000002035130720221509I012518219791NIVALDO FRANCISCO DOS SANTOS                        
0000002045130720221509I012518265866RAFAEL COSTA SIMOES                                 
0000002055130720221509I012529752046FRANCISCO NASCIMENTO PEREIRA                        
0000002065130720221509I012531986571MARCOS TONI VASCONCELOS PEREIR                      
0000002075130720221509I012533320252ROSENILDO BARBOSA MUNIZ                             
0000002085130720221509I012533410634ADEMILTON DO NASCIMENTO LIMA                        
0000002095130720221509I012533432972JAIZINHO ALVES DE SOUZA                             
0000002105130720221509I012533565468LOURINALDO BATISTA DOS SANTOS                       
0000002115130720221509I012533565840ROGERIO GONCALVES DOS REIS                          
0000002125130720221509I012533566626UBIRATAN JESUS DOS SANTOS                           
0000002135130720221509I012533568343ADENILTON CARMO DOS SANTOS                          
0000002145130720221509I012533571417JAIME GONCALVES DE SOUZA FILHO                      
0000002155130720221509I012533753191ALEXANDRO DE SOUZA GONZAGA SAN                      
0000002165130720221509I012533799752UBIRAJARA DOS SANTOS FREITAS                        
0000002175130720221509I012533819788JOSAFA COUTINHO DA SILVA                            
0000002185130720221509I012533997104JAKSON ALEXANDRINO DE JESUS                         
0000002195130720221509I012534124163ROSENTINO DA SILVA JUNIOR                           
0000002205130720221509I012534212216JOILSON FERREIRA SANTOS                             
0000002215130720221509I012534254776URBANO CARVALHO DE FREITAS NET                      
0000002225130720221509I012534400810ERMESON FERREIRA DO SANTO                           
0000002235130720221509I012545108865JAIR SANTANA MOREIRA                                
0000002245130720221509I012545108881JAILTON DE JESUS PEREIRA                            
0000002255130720221509I012545111254JOSE REIS DE JESUS DOS SANTOS                       
0000002265130720221509I012545112269ARIOSVALDO DE JESUS                                 
0000002275130720221509I012545113397CAMILO RODRIGUES NOVAIS                             
0000002285130720221509I012545113974ANTONIO ROBERTO MARQUES CARVAL                      
0000002295130720221509I012545656501CARLOS DUARTE DE SANTANA                            
0000002305130720221509I012545671128MARCOS FRANCISCO DA SILVA                           
0000002315130720221509I012547143196JOSE EDMILSON LIMA DE OLIVEIRA                      
0000002325130720221509I012551638161MANUEL DA CONCEICAO DA SILVA F                      
0000002335130720221509I012556092043ANTONIO MIRANDA                                     
0000002345130720221509I012556669081CLAUDIO SANTANA DA SILVA                            
0000002355130720221509I012557422063SULENIO CONCEICAIO MUNIZ                            
0000002365130720221509I012557464068REGINALDO FERREIRA SIMOES                           
0000002375130720221509I012557806015ANTONIO CARLOS CARDIAL FILHO                        
0000002385130720221509I012557826075JOSE CARLOS DOS SANTOS                              
0000002395130720221509I012558799071JAILSON PASSARINHO DA SILVA                         
0000002405130720221509I012559492042DIVAELSON DIAS MOURA                                
0000002415130720221509I012560110018JAILMO PEREIRA BACELAR                              
0000002425130720221509I012581506069GENARIO DOS SANTOS SENA                             
0000002435130720221509I012582110819FERNANDO DA SILVA OLIVEIRA                          
0000002445130720221509I012583571046FAUSTINO FERREIRA DOS SANTOS F                      
0000002455130720221509I012584343063ORLANDO RODRIGUES INVENCAO                          
0000002465130720221509I012584433836SAMUEL DA SILVA SILVESTRE                           
0000002475130720221509I012584485968IGOR SANTOS DA ROCHA                                
0000002485130720221509I012584774803CLEITON SANTOS DA SILVA                             
0000002495130720221509I012585234055RENILSON MOREIRA DOS SANTOS                         
0000002505130720221509I012585368078VALTER CARMO LOPES                                  
0000002515130720221509I012586258055CRISTIANO SANTOS DE SANTANA                         
0000002525130720221509I012586538953SAMUEL ANTONIO MATIAS PIRES                         
0000002535130720221509I012586859075LUCIVANDO BATISTA                                   
0000002545130720221509I012589744058DOMINGOS DE JESUS SANTANA JUNI                      
0000002555130720221509I012590237040IDIVALDO DOS SANTOS BORGES                          
0000002565130720221509I012592174062GENIVALDO DE JESUS ALMEIDA                          
0000002575130720221509I012592327055JOSEMAR ANDRADE DOS SANTOS                          
0000002585130720221509I012593025052RENIVALDO SOARES DOS SANTOS                         
0000002595130720221509I012593420059ROGERIO DA SILVA SANTOS                             
0000002605130720221509I012594689043JOAO SANDRO DANTAS                                  
0000002615130720221509I012594939082CLAUDINO SANTOS OLIVEIRA                            
0000002625130720221509I012595593082ADILSON JESUS DE CARVALHO                           
0000002635130720221509I012597622063LINSMAR FERREIRA COSTA                              
0000002645130720221509I012597675086REINALDO CONCEICAO DA SILVA                         
0000002655130720221509I012603707975SERGIO CRUZ DA SILVA                                
0000002665130720221509I012603770057ERIVALDO DOS SANTOS CUNHA                           
0000002675130720221509I012603800061LUCIANO DA SILVA CORREIA                            
0000002685130720221509I012604210047ADEMIR DA PAIXAO SANTOS                             
0000002695130720221509I012604356084ALESSANDRO MUNIZ DOS SANTOS                         
0000002705130720221509I012604642052IVAN COUTINHO DOS SANTOS                            
0000002715130720221509I012606598050AILTON BARBOSA DOS SANTOS                           
0000002725130720221509I012606947055LAURENCI PAULO DOS SANTOS                           
0000002735130720221509I012607598046SERGIO SANTOS DA SILVA                              
0000002745130720221509I012607654078WELLINGTON DE ARAUJO ALMEIDA                        
0000002755130720221509I012607787051RONALDO DOS SANTOS LINS                             
0000002765130720221509I012608758063ANTONIO LIMA DOS SANTOS                             
0000002775130720221509I012608928058JOABE FERREIRA DA SILVA                             
0000002785130720221509I012608965085RENAILDO TAVARES SANTANA                            
0000002795130720221509I012609408058EDILTON SANTOS DOS SANTOS                           
0000002805130720221509I012610201070EDIMILSON DE BRITO BRANDAO                          
0000002815130720221509I012611633063UBIRACI DOS SANTOS COUTINHO                         
0000002825130720221509I012612954041JOERBSON MARTINS DA SILVA                           
0000002835130720221509I012612971078ADAILTON DE MATOS ROQUE                             
0000002845130720221509I012614470041NUBIA SANTANA SOUSA                                 
0000002855130720221509I012614789080MOISES ALVES FERREIRA                               
0000002865130720221509I012614981062ROSIVAL RAIMUNDO DOS SANTOS                         
0000002875130720221509I012615313047GENIVALDO DA SILVA DOS SANTOS                       
0000002885130720221509I012615805136ADILTON JESUS DE CARVALHO                           
0000002895130720221509I012615939078JAILSON DE JESUS PEREIRA                            
0000002905130720221509I012616127085ADILTON QUEIROZ DOS SANTOS                          
0000002915130720221509I012616780064ELBERT DE JESUS DE CARVALHO                         
0000002925130720221509I012616852073GILMAR ALVES RIBEIRO                                
0000002935130720221509I012617390073JOSE ROBERTO ALVES DOS SANTOS                       
0000002945130720221509I012618715073VALMIR COUTINHO DOS SANTOS                          
0000002955130720221509I012618996056GENIVALDO ALEXANDRINO DE JESUS                      
0000002965130720221509I012619208078JOSE CARLOS BERTOLINA DA SILVA                      
0000002975130720221509I012619304085LUIZ CLAUDIO DA TRINDADE                            
0000002985130720221509I012619476064MANOELITO RAMOS BISPO                               
0000002995130720221509I012620305898JOSELINO DOS SANTOS                                 
0000003005130720221509I012620416088ELIO DE JESUS DOS SANTOS                            
0000003015130720221509I012620601071EDSON SANTANA REIS                                  
0000003025130720221509I012620637068JOSE MARCIO JUCA DE ARAUJO                          
0000003035130720221509I012620912077JOSE MARIO SILVA MOTA                               
0000003045130720221509I012621143042EDVANILDO OLIVEIRA DA SILVA                         
0000003055130720221509I012621179055ZENILTON SILVA SANTOS DE FREIT                      
0000003065130720221509I012622173050DARCY DE OLIVEIRA LIMA                              
0000003075130720221509I012622280086CARLOS ALBERTO SANTOS DE SOUZA                      
0000003085130720221509I012625545048CLAUDIO JOSE BRITO                                  
0000003095130720221509I012627086059MARCIO SOARES DA SILVA                              
0000003105130720221509I012628201072CLAUDIO JORGE DA CONCEICAO SAN                      
0000003115130720221509I012629186085ROMILSON GOMES DE SANTANA                           
0000003125130720221509I012629930051RONIVALDO FIUZA DO CARMO                            
0000003135130720221509I012630234071RUBINEI PEREIRA DA CRUZ                             
0000003145130720221509I012630496041HERNANDE GOMES DOS SANTOS                           
0000003155130720221509I012630696075JOSE ELIAS ALVES DOS SANTOS JU                      
0000003165130720221509I012630707042JOSE ROSALVO DOS SANTOS                             
0000003175130720221509I012631832088JOSE ROBERTO DOS SANTOS                             
0000003185130720221509I012632167061GIVANILDO BOMFIM DO NASCIMENTO                      
0000003195130720221509I012632774049JANUILES DOS SANTOS FERREIRA                        
0000003205130720221509I012633595407JOSE ROBERTO SOARES LIMA                            
0000003215130720221509I012633798073ALAN DE MEDEIROS SANTOS                             
0000003225130720221509I012634286041JOSEVAL SANTOS DE MENEZES                           
0000003235130720221509I012634339072GENILSON DOS SANTOS                                 
0000003245130720221509I012634755041JOSE RENATO LIMA DE SOUZA                           
0000003255130720221509I012634909073GILSON FERNANDES DE SOUZA                           
0000003265130720221509I012637529077MARCOS DA SILVA SOUZA                               
0000003275130720221509I012638015042RAILSON DA CRUZ                                     
0000003285130720221509I012639449070JAIR RAMOS DA SILVA                                 
0000003295130720221509I012639573073RICARDO SOUZA DOS SANTOS                            
0000003305130720221509I012641360065JEAN SILVA PAIXAO                                   
0000003315130720221509I012646219050CARLOS CONCEICAO SILVA                              
0000003325130720221509I012649092051FLAVIO GOMES DA PALMA                               
0000003335130720221509I012649117089ENIESON OLIVEIRA DOS SANTOS                         
0000003345130720221509I012650353068VALTER JOSE DOS SANTOS SANTANA                      
0000003355130720221509I012652148062VALMIR TAVARES DE LIMA                              
0000003365130720221509I012652166044FLAVIO MAURICIO DOS SANTOS                          
0000003375130720221509I012652726066ADEMARIO SOUZA DA PAIXAO                            
0000003385130720221509I012652731078EDILBERTO SOUZA SANTOS                              
0000003395130720221509I012652945086ANTONIO MARCOS SANTOS SILVA                         
0000003405130720221509I012654974059EDIMILSON DE JESUS COSTA                            
0000003415130720221509I012656531073JOSENILSON FRANCISCO DOS SANTO                      
0000003425130720221509I012656598089CLAUDIO DOS SANTOS ALVES                            
0000003435130720221509I012656661066LEONCIO DE CARVALHO MORAES                          
0000003445130720221509I012656668060ROBSON DOS SANTOS FERREIRA                          
0000003455130720221509I012657183761LAERCIO ALVES DO NASCIMENTO                         
0000003465130720221509I012658523078JOSE ANTONIO DA SILVA                               
0000003475130720221509I012659006689CLEIDSON SANTOS NERY                                
0000003485130720221509I012659371069EDVONALDO OLIVEIRA DA SILVA                         
0000003495130720221509I012660312054REINALDO AZEVEDO DA SILVA                           
0000003505130720221509I012660644073ROMEVALDO DOS SANTOS DE SANTAN                      
0000003515130720221509I012660996042ANTONIO MARCOS SANTOS DE SOUZA                      
0000003525130720221509I012661627059JUDSON CRUZ SANTOS                                  
0000003535130720221509I012661840070ALEX SANDRO BASTOS DE SOUZA                         
0000003545130720221509I012663295045JOAO CARLOS BEZERRA DO NASCIME                      
0000003555130720221509I012664527071GENIVALDO SANTANA DOS SANTOS                        
0000003565130720221509I012667652071EVERSON BOMFIM DE AZEVEDO                           
0000003575130720221509I012669464086SIDICLEI DOS SANTOS CIMAS                           
0000003585130720221509I012670548042CARLOS ANDRE DE JESUS DAS VIRG                      
0000003595130720221509I012672534049JOSE NILTON PEREIRA DE AZEVEDO                      
0000003605130720221509I012672835073EDVALDO DOS SANTOS DA SILVA                         
0000003615130720221509I012674219051JOSE RAIMUNDO DE FREITAS SANTO                      
0000003625130720221509I012674288061CLEDUILSON DOS SANTOS DE SOUSA                      
0000003635130720221509I012675112048JOSE MIRAO CORDEIRO NETO                            
0000003645130720221509I012675465056ISAIAS DOS SANTOS ROCHA                             
0000003655130720221509I012675746055ALEX DOS SANTOS DA COSTA                            
0000003665130720221509I012675873049ADILSON DOS SANTOS                                  
0000003675130720221509I012678161074LUIZ CARLOS DOS SANTOS                              
0000003685130720221509I012678987088ERLON SANTANA DOS SANTOS                            
0000003695130720221509I012680089695EDVAM DE SANTANA SANTOS                             
0000003705130720221509I012680621079LUIZ CARLOS SAMPAIO SOUZA                           
0000003715130720221509I012680841044WAGNER SANTOS NEPOMUCENO                            
0000003725130720221509I012681928070JOSE DOMINGOS BISPO DE CARVALH                      
0000003735130720221509I012682028073JOAO VIEIRA DE ANDRADE FILHO                        
0000003745130720221509I012683183072FABIO VIEIRA DOS ANJOS                              
0000003755130720221509I012683710765ERICK FERNANDES DE SOUZA                            
0000003765130720221509I012685025075MARCOS JOSE VIEIRA DA SILVA                         
0000003775130720221509I012686570042ALEX RODRIGUES LOPES                                
0000003785130720221509I012686583063JAILSON FARIAS DOS SANTOS                           
0000003795130720221509I012687231055JOSEILTON ALVES REIS                                
0000003805130720221509I012687474071JOSE ROBERTO DA SILVA PRADO                         
0000003815130720221509I012689959072JUCIVALDO CONCEICAO DA CRUZ                         
0000003825130720221509I012689995087ERALDO NASCIMENTO DA ROCHA                          
0000003835130720221509I012690455066ADEMILTON DOS SANTOS TAVARES                        
0000003845130720221509I012690896054MARCOS DE SOUZA NUNES                               
0000003855130720221509I012691268049MARCIO SILVA SANTOS                                 
0000003865130720221509I012691857052PAULO ENRIQUE SANTANA DA SILVA                      
0000003875130720221509I012692001070FABIO ALMEIDA SANTOS CRUZ                           
0000003885130720221509I012692140690FABIO DE JESUS ARGOLO                               
0000003895130720221510I012692724048SERGIO DE ASSIS DA COSTA                            
0000003905130720221510I012693301043ALEX SANDRO GONCALVES LIMA ARA                      
0000003915130720221510I012693351083ALDEBRANDO ANGELO COSTA SODRE                       
0000003925130720221510I012694421069SILVAN SARAIVA DOS SANTOS                           
0000003935130720221510I012695224046ROBSON BATISTA DOS SANTOS                           
0000003945130720221510I012696041085JOAO CARLOS GOMES DA SILVA                          
0000003955130720221510I012696181081FABIO DOS SANTOS SANTANA                            
0000003965130720221510I012696338088JAMILSON ARRUDA DA SILVA                            
0000003975130720221510I012696446077JOSIVAL DOS SANTOS FERREIRA                         
0000003985130720221510I012696543080FABIO DE OLIVEIRA DA SILVA                          
0000003995130720221510I012697631048PAULO LUIS DA SILVA                                 
0000004005130720221510I012698558042JOSEILTON SOUSA DOS ANJOS                           
0000004015130720221510I012698584078FABIO PEREIRA DA SILVA                              
0000004025130720221510I012699425062ZENILTON DAMASCENO DE SOUZA                         
0000004035130720221510I012700066059MANOEL DANTAS BARBOSA                               
0000004045130720221510I012700390042HELIO BANDEIRA DA SILVA                             
0000004055130720221510I012700509082SIDNEI SANTIAGO DOS SANTOS                          
0000004065130720221510I012702633066JOSUE MARTINS SILVA                                 
0000004075130720221510I012704627047ANTONIO MARCOS SANTOS E SANTOS                      
0000004085130720221510I012704936082NILSON ALVES LIMA                                   
0000004095130720221510I012705065050JOSE EDINEI SANTOS DE JESUS                         
0000004105130720221510I012705120043ALAN NUNES DA SILVA                                 
0000004115130720221510I012705727053EVERALDO NASCIMENTO NONATO MED                      
0000004125130720221510I012706457076GIVANILDO SANTOS DA SILVA                           
0000004135130720221510I012707210074UELLINGTON ANTONIO RIBEIRO MEN                      
0000004145130720221510I012708403089PERINILSON LIMA COSTA                               
0000004155130720221510I012710027048JOAO SILVERIO DE JESUS                              
0000004165130720221510I012711155082RIVALDO MESSIAS BRITO                               
0000004175130720221510I012711205055JOSEVALDO FERREIRA SANTANA                          
0000004185130720221510I012712339071DERIVALDO REIS GABRIEL                              
0000004195130720221510I012713464058RONALDO DE JESUS SANTOS                             
0000004205130720221510I012713869074UELTON FABIO PEREIRA LOPES                          
0000004215130720221510I012714533045FREDSON ALVES DE SOUZA                              
0000004225130720221510I012714567063VALDEMIR CONCEICAO LUZ                              
0000004235130720221510I012714691813LUIS CARLOS SILVA MATOS                             
0000004245130720221510I012714771078ELISANDRO DA SILVA DE JESUS                         
0000004255130720221510I012715139065JONATHAS FRANCISCO DOS SANTOS                       
0000004265130720221510I012715629070SIDNEY RODRIGUES DE SANTANA                         
0000004275130720221510I012715789043MARCOS PAULO DE SOUZA SANTIAGO                      
0000004285130720221510I012716125076SATURNINO BISPO DE CARVALHO                         
0000004295130720221510I012716672050JILMAR ALMEIDA DO NASCIMENTO                        
0000004305130720221510I012716875075FABIO LUIS LIMA DOS SANTOS                          
0000004315130720221510I012717093062DOUGLAS LAPA DE JESUS                               
0000004325130720221510I012717672062AURELINO ALVES GOMES                                
0000004335130720221510I012718419042GILMAR JESUS DOS SANTOS                             
0000004345130720221510I012718546044CLEDISON SOUZA SANTOS                               
0000004355130720221510I012719479057GILTON LEANDRO DA SILVA                             
0000004365130720221510I012720012078GILDASIO DA SILVA SOUZA                             
0000004375130720221510I012720361056EDSON DA CONCEICAO COUTINHO                         
0000004385130720221510I012720835058LUIZ CLAUDIO SOUZA DOS SANTOS                       
0000004395130720221510I012721138067ALEX PEREIRA DE ALMEIDA                             
0000004405130720221510I012722245053JONAS SANTOS GOMES                                  
0000004415130720221510I012722508070CARLOS SANTANA DOS SANTOS                           
0000004425130720221510I012722880042FABIANO EMIDIO DE LIMA                              
0000004435130720221510I012723188150FABIO DOS ANJOS SANTOS                              
0000004445130720221510I012723932089EDIVAN DOS SANTOS DE SOUZA                          
0000004455130720221510I012724998075ALMERINDO TEODOZO DOS SANTOS                        
0000004465130720221510I012725055050ADEILTON MIGUEL DE BRITO                            
0000004475130720221510I012725339040ROMEL DANTAS SANTANA                                
0000004485130720221510I012725645052LEANDRO CARLOS DOS SANTOS FREI                      
0000004495130720221510I012725968056DAMIAO SANTOS SANTANA                               
0000004505130720221510I012726160060AGNALDO MARINHO DE JESUS                            
0000004515130720221510I012727224089EDSON SANTANA                                       
0000004525130720221510I012727706040LEONARDO DOS SANTOS CAMPOS                          
0000004535130720221510I012728168085MAILSON SOUZA NUNES                                 
0000004545130720221510I012729535049ADENILSON NEPONUCENO DA CRUZ                        
0000004555130720221510I012731591074NILTON CESAR CERQUEIRA MOREIRA                      
0000004565130720221510I012732549071SAMUEL SANTOS FERREIRA                              
0000004575130720221510I012733474040MARCOS PAULO DIAS SOUZA                             
0000004585130720221510I012733847068ROBSON CABOCLO DA SILVA                             
0000004595130720221510I012734917078JOSEMIR DA SILVA PEREIRA                            
0000004605130720221510I012735261079NAILSON SANTOS DA SILVA                             
0000004615130720221510I012735908080UELITON ALMEIDA CRUZ                                
0000004625130720221510I012736747080SIDNEI SOUSA DOS SANTOS                             
0000004635130720221510I012736764066ROQUE SILVA DOS SANTOS                              
0000004645130720221510I012737570079REGINALDO DA SILVA COSTA                            
0000004655130720221510I012737779075JIVANGLEY ARAUJO DE SANTANA                         
0000004665130720221510I012737872075ROBERTO FERNANDES DE JESUS                          
0000004675130720221510I012738066056ARENILDO DA SILVA SANTOS                            
0000004685130720221510I012739858045DIEGO SAMPAIO PASSOS                                
0000004695130720221510I012740577089MAURICIO PINTO DOS REIS                             
0000004705130720221510I012740620049EDILSON DOS SANTOS BATISTA                          
0000004715130720221510I012741262073MARCELO DOS SANTOS                                  
0000004725130720221510I012741727041JOSE ANASTACIO DE JESUS CRUZ                        
0000004735130720221510I012742182065ERIVALDO DE JESUS DE LIMA                           
0000004745130720221510I012743830052ALEXANDRO SANTOS DE JESUS                           
0000004755130720221510I012745057067MARINALDO FELIX CABOCLO                             
0000004765130720221510I012745758065EDVAN DE SOUZA SILVA                                
0000004775130720221510I012746171041ROMENIL SEBASTIAO DE AZEVEDO F                      
0000004785130720221510I012746336040JEAN CRISPIM SILVA DE MATOS                         
0000004795130720221510I012746758069CLEONILDO SANTANA DAS VIRGENS                       
0000004805130720221510I012746863121ERINALDO DE JESUS DE LIMA                           
0000004815130720221510I012748020083IDENESON DOS SANTOS SILVA                           
0000004825130720221510I012748434074MARCOS DA SILVA SOUZA                               
0000004835130720221510I012748809124MAMEDIO DA SILVA JUNIOR                             
0000004845130720221510I012749227048EDMILSON DE JESUS GOES                              
0000004855130720221510I012749241040UELISSON DE BRITO SOUZA                             
0000004865130720221510I012749391069ANDERSON GOMES DOS SANTOS                           
0000004875130720221510I012749465089RICARDO BATISTA FRAZAO                              
0000004885130720221510I012750160083ACACIO RODRIGUES DE LIMA                            
0000004895130720221510I012751723138JOSE CARLOS DOS REIS                                
0000004905130720221510I012752078058SIDNEI GUEDES DOS SANTOS                            
0000004915130720221510I012752137070CRISPIM SILVA DE SENA                               
0000004925130720221510I012752554089JOSE EVANDRO CARMO DOS SANTOS                       
0000004935130720221510I012752844079PAULO ROBERTO TAVARES ALVES                         
0000004945130720221510I012753405079EDINALDO DE FARIAS PASSOS                           
0000004955130720221510I012753801055RONALDO RAMOS DA ANUNCIACAO                         
0000004965130720221510I012754388054LUCIANO DOS SANTOS VIANA                            
0000004975130720221510I012754628063FABIO ALVES BARRADAS                                
0000004985130720221510I012754649087AYRTON FERNANDO SOUZA DOS SANT                      
0000004995130720221510I012755079047ADIMILSON SANTANA DE JESUS                          
0000005005130720221510I012755366070UILSON DE CARVALHO SANTOS                           
0000005015130720221510I012756643760JOSE ADILSON SANTOS SOUSA                           
0000005025130720221510I012756669042DANIEL PEREIRA CAETANO                              
0000005035130720221510I012756774180ADNAN REIS SANTOS                                   
0000005045130720221510I012757074042IVAN NAZARE DOS SANTOS                              
0000005055130720221510I012757631073RICARDO DA PURIFICACAO DOS SAN                      
0000005065130720221510I012757633084CARLOS HENRIQUE SANTOS BATISTA                      
0000005075130720221510I012759444041CHARLES DE JESUS LEITE                              
0000005085130720221510I012759782060PEDRO LEONARDO BRITO SANTOS                         
0000005095130720221510I012760939075JOSUE FAGUNDES MENDES                               
0000005105130720221510I012761929057JULIO CEZAR DE ARAUJO DE SENA                       
0000005115130720221510I012763618083CARLOS ALBERTO MARTINS DOS SAN                      
0000005125130720221510I012764113066JOSENILSON DA SILVA SANTOS                          
0000005135130720221510I012764387077MARCOS VINICIUS RODRIGUES PALM                      
0000005145130720221510I012764795086REINIVALDO DA SILVA SANTANA                         
0000005155130720221510I012765605086MOACIRVALDO FREITAS DA SILVA                        
0000005165130720221510I012765814076LEANDRO SOUZA DOS SANTOS                            
0000005175130720221510I012766238044JEILSON BARBOSA GOIS                                
0000005185130720221510I012766447085TELVAN DE OLIVEIRA NOBRE                            
0000005195130720221510I012768176046JOSE SOUZA DOS SANTOS FILHO                         
0000005205130720221510I012768482058MARCOS DA SILVA BARBOSA                             
0000005215130720221510I012769949081EMISAEL DOS SANTOS RODRIGUES                        
0000005225130720221510I012771773076JOILTON SANTOS DE JESUS                             
0000005235130720221510I012775899074ALEX NASCIMENTO DOS SANTOS                          
0000005245130720221510I012777011763ADENILDO JOSE DE JESUS GOMES                        
0000005255130720221510I012781810047GUSTAVO SANTOS DE LIMA                              
0000005265130720221510I012781908047MARCUS VENICIUS DA CUNHA SILVA                      
0000005275130720221510I012783462089FABIO DOS SANTOS DE SOUSA                           
0000005285130720221510I012785781076RICARDO DE SANTANA SANTOS                           
0000005295130720221510I012785821086ANTONIO ADAILTON GUEDES PINHEI                      
0000005305130720221510I012788965054ROGERIO BISPO                                       
0000005315130720221510I012790331776JEAN OLIVEIRA DA SILVA                              
0000005325130720221510I012793975054FLORAN SANTOS PAIXAO                                
0000005335130720221510I012799177850EVERALDO DE SOUZA SILVA                             
0000005345130720221510I012800998069AGNALDO SANTOS RIBEIRO                              
0000005355130720221510I012801732054ADELSON PEREIRA DE AMORIM                           
0000005365130720221510I012804410058ANDRE BATISTA DE ALCANTARA LEI                      
0000005375130720221510I012809580075ANDRE ERIC DE ARAUJO FERREIRA                       
0000005385130720221510I012811815041CICERO MAURICIO DE SOUZA PESTA                      
0000005395130720221510I012814787049CLENILSON NUNES PEREIRA                             
0000005405130720221510I012820506048MILTON JOSE SIMAO SANTOS                            
0000005415130720221510I012823606086NADIO DA CONCEICAO                                  
0000005425130720221510I012825238084ANDERSON LIMA DE SOUZA                              
0000005435130720221510I012825336086GILSON SANTOS PEREIRA                               
0000005445130720221510I012826298897MARIVALDO PAIXAO DOS SANTOS                         
0000005455130720221510I012827300046ANDRE LUIS SANTOS OLIVEIRA                          
0000005465130720221510I012827735077JEFERSON SANTOS SANTANA                             
0000005475130720221510I012829451076VALDIR GOMES DA SILVA JUNIOR                        
0000005485130720221510I012830015071ALEXILDO SILVA DOS SANTOS                           
0000005495130720221510I012831926043MARCOS BARBOSA DE JESUS                             
0000005505130720221510I012831949051LAECIO SAMPAIO DE ARAGAO                            
0000005515130720221510I012832016059RICARDO MORAIS DOS SANTOS                           
0000005525130720221510I012832425056JONIKLECIO BENICIO DE CARVALHO                      
0000005535130720221510I012837774075ANDRE MAIA DA SILVA                                 
0000005545130720221510I012838877080JOEL DA SILVA ANDRADE FILHO                         
0000005555130720221510I012840614857JOSE CICERO DO NASCIMENTO                           
0000005565130720221510I012844387057MAICON VIEIRA SILVA                                 
0000005575130720221510I012844856073DANIEL DA SILVEIRA TORRES                           
0000005585130720221510I012846728064LAECIO DA SILVA LOPES                               
0000005595130720221510I012847404076LUIZ ALBERTO SANTOS DA SILVA                        
0000005605130720221510I012853076042DIEGO ANASTACIO GOMES                               
0000005615130720221510I012854996080JOUBERT JESUS SANTOS                                
0000005625130720221510I012857327775CARLOS FABIO DOS SANTOS                             
0000005635130720221510I012858002047ROBERTO SOUZA DOS SANTOS                            
0000005645130720221510I012858111075RODRIGO OLIVEIRA LIMA                               
0000005655130720221510I012860139089UBIRATAN SANTANA DOS SANTOS                         
0000005665130720221510I012864539049LEANDRO BATISTA DO NASCIMENTO                       
0000005675130720221510I012865677070CARLOS AUGUSTO SILVA DE ANDRAD                      
0000005685130720221510I012868223399JEIEL DA SILVA COUTO                                
0000005695130720221510I012869018101JUSCELINO CARNEIRO RIOS                             
0000005705130720221510I012870629070ROBERLITO FERNANDES NEVES                           
0000005715130720221510I012870800047REINALDO OLIVEIRA CARNEIRO                          
0000005725130720221510I012871461041EMERSON DA SILVA SANTOS                             
0000005735130720221510I012878231076ROBERTO SANTOS SILVA                                
0000005745130720221510I012880341169UELITON RODRIGUES DA SILVA                          
0000005755130720221510I012881350064JOSIMAR SANTOS SILVA                                
0000005765130720221510I012881398059NILSON CRUZ DA SILVA                                
0000005775130720221510I012882661071TIAGO LOPES DO NASCIMENTO                           
0000005785130720221510I012886285767ECLESIO SANTOS MENEZES                              
0000005795130720221510I012887636059JAQUISON CERQUEIRA DOS SANTOS                       
0000005805130720221510I012887698070ACASSIO SANTOS DE SOUZA                             
0000005815130720221510I012890193065EVARISTO ANDRE DE MOURA NETO                        
0000005825130720221510I012890641084GILSON VIEIRA SANTANA                               
0000005835130720221510I012892126071ROBERTO SILVA SOUZA                                 
0000005845130720221510I012893729047JAELSON DE PINHO CARNEIRO                           
0000005855130720221510I012894295067JOSE GILIARD SANTOS DE JESUS                        
0000005865130720221510I012898222072JACSON SOUZA DE BRITO                               
0000005875130720221510I012899422040SEANDRO DOS SANTOS NASCIMENTO                       
0000005885130720221510I012901090070VANDERLEI MARQUES DE CARVALHO                       
0000005895130720221510I012901755056ARTUR FARIAS DOS SANTOS                             
0000005905130720221510I012902237083ERENILDO DOS SANTOS SOARES                          
0000005915130720221510I012903203085JOELITO DOS SANTOS SILVA                            
0000005925130720221510I012903665054JILCIMAR SOUZA BATISTA                              
0000005935130720221510I012904177061PEDRO DO AMOR DIVINO JUNIOR                         
0000005945130720221510I012905603048ROGERIO SANTOS DE SOUZA                             
0000005955130720221510I012906690084ADRIANO MOTA DA SILVA                               
0000005965130720221510I012910265074CLEIDSON NUNES PEREIRA                              
0000005975130720221510I012912037052RENILSON LEAL DE SANTANA                            
0000005985130720221510I012913158058THIAGO RAMOS DOS SANTOS SANTAN                      
0000005995130720221510I012913977067PEDRO HENRIQUE BOMFIM DA FRANC                      
0000006005130720221510I012915099067VALDEMIR LIMA RODRIGUES SANTOS                      
0000006015130720221510I012915881067LUIZ FERNANDO SANTOS DA SILVA                       
0000006025130720221510I012917605040JEFFERSON ELOI DE LIRA                              
0000006035130720221510I012917635055RENATO DA COSTA COELHO                              
0000006045130720221510I012919393040MANOEL LOURIVAL DE OLIVEIRA NE                      
0000006055130720221510I012919397054EMANUEL MESSIAS SANTOS DA SILV                      
0000006065130720221510I012919952074ELIELSON SANTOS DE SOUZA                            
0000006075130720221510I012920237049ADSON CONCEICAO DOS SANTOS                          
0000006085130720221510I012921564078PAULO CESAR BRANDAO LISBOA                          
0000006095130720221510I012923417064GEORGE FERREIRA SANTOS                              
0000006105130720221510I012923777087GILMARIO BARRETO DOS SANTOS SI                      
0000006115130720221510I012927265064EDINALDO SOUZA SAO PEDRO                            
0000006125130720221510I012934516042LEONARDO SOUZA DOS SANTOS                           
0000006135130720221510I012936796069JEFERSON DE JESUS PINHEIRO                          
0000006145130720221510I012938398060JUVENILDO MELO DE JESUS                             
0000006155130720221510I012941673050RAUL ASSIS DE LIMA NETO                             
0000006165130720221510I012943073050ALAN SOUZA DOS SANTOS                               
0000006175130720221510I012945226814CLAUDIA REGINA NASCIMENTO LOIO                      
0000006185130720221510I012945337047PAULO SERGIO DE SOUZA                               
0000006195130720221510I012946490078EVERTON LUIZ DOS SANTOS SALES                       
0000006205130720221510I012947311053DAVID BARBOZA                                       
0000006215130720221510I012951300079JOSE CARLOS SOUZA GOMES                             
0000006225130720221510I012952393046RODRIGO PANDINI SANTOS                              
0000006235130720221510I012952799069JORGE PEREIRA DE DEUS                               
0000006245130720221510I012954948061MARCOS VINICIUS DA MOTA SANTOS                      
0000006255130720221510I012956045042GENIVALDO DA SILVA TRABUCO                          
0000006265130720221510I012965043197CICERO MARQUES DE CERQUEIRA                         
0000006275130720221510I012965568087SANDERSON PORTO DOS SANTOS                          
0000006285130720221510I012968305052SAULO SEDRAQUE SANTOS BONFIM                        
0000006295130720221510I012968895062SANDOVAL FERNANDES DE SOUZA                         
0000006305130720221510I012969442053ALECIO DE SOUZA OLIVEIRA                            
0000006315130720221510I012970393583MARCIO DA SILVA DOS SANTOS                          
0000006325130720221510I012974756702GILVAN CALISTO CARNEIRO                             
0000006335130720221510I012977123042JAGUARACI BISPO DOS SANTOS NAS                      
0000006345130720221510I012979693083ALEX SANDRO ALVES DA SILVA                          
0000006355130720221510I012980304273CRISTIANO ARAUJO COUTINHO                           
0000006365130720221510I012982018081LEANDRO DOS SANTOS MOTTA                            
0000006375130720221510I012989050088ALLISON RAMON ARAUJO DE SANTAN                      
0000006385130720221510I012989146859VALDIMIRO DO CARMO DA PAIXAO                        
0000006395130720221510I012989566076LUIS ALVES DE OLIVEIRA                              
0000006405130720221510I012992098061ROMULO VINICIUS NASCIMENTO SOU                      
0000006415130720221510I012992992048JORGE NONATO QUEIROZ                                
0000006425130720221510I012994339082FRANCIS FREITAS DE SOUZA                            
0000006435130720221510I012997460079JORGE VALTER DOS SANTOS                             
0000006445130720221510I012998673084GILMARIO FERREIRA DA SILVA                          
0000006455130720221510I013003781064KLEBER MATOS ARAUJO                                 
0000006465130720221510I013009142055HARRISON VALENTIM TAVARES FERR                      
0000006475130720221510I013011349087MUCIO MODESTO MACHADO MATOS                         
0000006485130720221510I013013497067RENAN SILVA MARQUES                                 
0000006495130720221510I013018221051JEOVAN SALES DA CONCEICAO                           
0000006505130720221510I013018745069HELTON SOUZA DOS SANTOS                             
0000006515130720221510I013020911779GERSON SILVA SANTOS                                 
0000006525130720221510I013031381059ROQUE CARLOS FREITAS COSTA                          
0000006535130720221510I013031758047JOSE MARCIO DA SILVA GOMES                          
0000006545130720221510I013035856078ARAILTON FERREIRA DOS SANTOS                        
0000006555130720221510I013036123813REINALDO DA SILVA GOMES                             
0000006565130720221510I013051005044JANISON DOS SANTOS                                  
0000006575130720221510I013053923083UERLLES DE SOUZA SANTOS                             
0000006585130720221510I013064098933LUCIANO DA SILVA GOMES                              
0000006595130720221510I013065239859LUIS CARLOS SANTOS DE SOUZA                         
0000006605130720221510I013073989896SILVINO SANTANA DOS SANTOS                          
0000006615130720221510I013075965978RONALSON DOS SANTOS JUNIOR                          
0000006625130720221510I013089271086JOELSON SANTANA SILVA                               
0000006635130720221510I013091798061GEIVSON BISPO FERREIRA                              
0000006645130720221510I013093069059SILAS MARCEL RIBEIRO DE FIGUEI                      
0000006655130720221510I013094822044JONATAN EVANGELHO DOS SANTOS                        
0000006665130720221510I013097923062LEANDRO DOS SANTOS CARNEIRO                         
0000006675130720221510I013101911051ALOISIO DAS MERCES DA SILVA                         
0000006685130720221510I013108153055REUEL DA SILVA COUTO RIOS                           
0000006695130720221510I013108662898VALMIR DOS SANTOS                                   
0000006705130720221510I013111642851VARNEY CORREIA ARAGAO                               
0000006715130720221510I013118255853DENIVALDO DE JESUS SILVA                            
0000006725130720221510I013121248064REGIVALDO SA BARBOSA                                
0000006735130720221510I013122865814ADAILTON DA SILVA LIMA                              
0000006745130720221510I013137878569JONATAS DE SOUZA LIMA                               
0000006755130720221510I013158316217NATAN HEBERT DA SILVA DE CARVA                      
0000006765130720221510I013181868530ELIENE DOS SANTOS                                   
0000006775130720221510I013191173934FLAVIO BENICIO DA SILVA SOUZA                       
0000006785130720221510I013260764452NEILSON COSTA BOMFIM                                
0000006795130720221510I013266182293CLESSIANO DE FRANCA SANTOS                          
0000006805130720221510I013271395178EROS JHOSEPH FERREIRA TELES                         
0000006815130720221510I013316741452ALEX DE SANTANA DA SILVA                            
0000006825130720221510I013380364273THIAGO DE SOUZA DO NASCIMENTO                       
0000006835130720221510I013393859810ENEAS MORAIS DOS SANTOS OLIVEI                      
0000006845130720221510I013437168451PAULO SOUSA LIMA                                    
0000006855130720221510I013445389909JOAO VICTOR DOS ANJOS BORGES                        
0000006865130720221510I013462428275CARLOS EDUARDO DANTAS DOS SANT                      
0000006875130720221510I013485444811LUIZ CARLOS PEREIRA LEITE                           
0000006885130720221510I013506327770CRISTIANO DOS SANTOS CARVALHO                       
0000006895130720221510I013522279270JOSENILSON SANTOS DE SOUZA                          
0000006905130720221510I013568152273UELINGTON DA SILVA CONCEICAO                        
0000006915130720221510I013638134252EVERTON LIMA DA SILVA                               
0000006925130720221510I013671890117IGOR DMYTRYK DA CRUZ                                
0000006935130720221510I013675065722VALNEI BISPO DAS NEVES                              
0000006945130720221510I013675191272RAFAEL DE JESUS SANTOS                              
0000006955130720221510I013697603042VINICIUS RAFAEL DA SILVA                            
0000006965130720221510I013704370710LUAN DOS SANTOS DE SANTANA                          
0000006975130720221510I013729988467GUSTAVO FRANCA SANTOS                               
0000006985130720221510I013797978277JOSELENE DOS SANTOS                                 
0000006995130720221510I013799637531FILIPE SILVESTRE COSTA                              
0000007005130720221510I013839499274RODRIGO SANTOS DE ALMEIDA                           
0000007015130720221510I013944841270BRUNO DE CARVALHO FRANQUETTO                        
0000007025130720221510I013958248135LEONARDO CIPRIANO DE JESUS                          
0000007035130720221510I014020395922GABRIEL CESAR DE CARVALHO TEIX                      
0000007045130720221510I014023472278DEIVISON DE ALMEIDA DE CARVALH                      
0000007055130720221510I014081698275MAGNUM BARBOSA DA ROCHA SANTOS                      
0000007065130720221510I014099501279LUAM BISMARCK ALMEIDA QUEIROZ                       
0000007075130720221510I014129282278ROBSON RODRIGUES DOS SANTOS                         
0000007085130720221510I014139537279EMERSON SANTOS DA SILVA                             
0000007095130720221510I014145100278RICARDO MENDES DE ALMEIDA                           
0000007105130720221510I014181985276UESLEY DE SANTANA SOUZA                             
0000007115130720221510I014266280293MATHEUS LUIS SILVA MOREIRA                          
0000007125130720221510I014274344076LUCCA PITANGUEIRA ANDION                            
0000007135130720221510I014274478706FELIPE MUNIS VELOSO DOS SANTOS                      
0000007145130720221510I014276437675EMANUELA MILA SOUZA DE SA BARR                      
0000007155130720221510I014339252278CLEBER DA SILVA MELO                                
0000007165130720221510I014339360275LUIS CLAUDIO JESUS SANTOS                           
0000007175130720221510I014416507158SILAS ANDRE GOIS PACHECO                            
0000007185130720221510I014428549004ELBERT MENDONCA DOS SANTOS                          
0000007195130720221510I014446223271ADRIANO DA ANUNCIACAO DOS SANT                      
0000007205130720221510I014456481273SERGIO LUIS SANTOS MOURA JUNIO                      
0000007215130720221510I014581085272JADSON LUIZ OLIVEIRA SILVA                          
0000007225130720221510I014590727397MICAEL JONATAS BATISTA DE JESU                      
0000007235130720221510I014591420864RONALDO MERON SANTOS                                
0000007245130720221510I014591549557ERIK JUNIO MENDONCA DOS SANTOS                      
0000007255130720221510I014626083273LAURINO DOS SANTOS FERNANDES                        
0000007265130720221510I014703690140VICTOR HUGO FERREIRA DOS SANTO                      
0000007275130720221510I014821062271ADEMILSON CARVALHO DOS SANTOS                       
0000007285130720221510I014847722074IAN DMYTRYK DA CRUZ                                 
0000007295130720221510I014853215278TAINA SILVA DOS REIS                                
0000007305130720221510I014873952758PABLO SANTOS DAS CHAGAS                             
0000007315130720221510I014875056954CARLA VITORIA TEIXEIRA DOS SAN                      
0000007325130720221510I014933581459KEVEM DE JESUS SILVA SANTOS                         
0000007335130720221510I014952640279JOSE ANTONIO FERNANDES DOS SAN                      
0000007345130720221510I014957184271MAX SUEL PERUNA SANTOS                              
0000007355130720221510I015070168855HEBERT ARIEL NASCIMENTO COELHO                      
0000007365130720221510I015096783271THALES DANTAS CERQUEIRA                             
0000007375130720221510I015105688132VICTOR MARTINS DE LIMA                              
0000007385130720221510I015120477279PHABLO LUIZ DE JESUS DOS SANTO                      
0000007395130720221510I015125233270PERICLES RODRIGO MACHADO DIAS                       
0000007405130720221510I015162452916ALYSSON FERNANDO SANTOS SENA                        
0000007415130720221510I015162690787IAGO BRANDAO VIEIRA                                 
0000007425130720221510I015162840207SAMUEL SANTOS GONCALVES                             
0000007435130720221510I015236711502JAIME BARBOSA DO ESPIRITO SANT                      
0000007445130720221510I015281275279MARCOS VINICIUS ALMEIDA SILVA                       
0000007455130720221510I015284241340FILIPE DA COSTA DE OLIVEIRA                         
0000007465130720221510I015347428310BRUNO ALEX SANDRO RIBEIRO DURA                      
0000007475130720221510I015447932800GUSTAVO GONCALVES REIS DE JESU                      
0000007485130720221510I015465272272JAQUISON DOS SANTOS                                 
0000007495130720221510I015564441277RICARDO DOS SANTOS                                  
0000007505130720221510I015610241271RAFAEL DE OLIVEIRA SANTOS ROQU                      
0000007515130720221510I015674444270WEULLE KAIK DE SANTANA SANTOS                       
0000007525130720221510I015681055381LUCAS SANTOS RIOS                                   
0000007535130720221510I015683078273HERCULES DE SOUZA GOMES                             
0000007545130720221510I015701469089JOAO MATHEUS CAMPOS DA SILVA D                      
0000007555130720221510I015763641489AMON CHAGAS SATURNINO                               
0000007565130720221510I016012129573DIEGO DOS SANTOS SANTANA                            
0000007575130720221510I016012681705ADILSON SANTOS MATOS                                
0000007585130720221510I016012682183ADILSON DE JESUS SANTOS                             
0000007595130720221510I016012701137ADRIEL SOUZA DOS SANTOS                             
0000007605130720221510I016012825162ANTONIO MARCOS REIS SANTOS                          
0000007615130720221510I016013007072DENILSON DE JESUS GOES                              
0000007625130720221510I016013028622DIEGO MOTA DA SILVA                                 
0000007635130720221510I016013037265DIOGENES SOUZA DOS SANTOS                           
0000007645130720221510I016013147761ELIELTON SANTOS DE SOUZA                            
0000007655130720221510I016017227395DAVID DE FRANCA SOUZA                               
0000007665130720221510I016017746856ELIVELTON PEREIRA DE SALES                          
0000007675130720221510I016018664519DANILO DE MELO                                      
0000007685130720221510I016019754392AILTON DOS SANTOS                                   
0000007695130720221510I016019926290DAVID DOS SANTOS GAMA                               
0000007705130720221510I016020208010EDSON DE JESUS MELO JUNIOR                          
0000007715130720221510I016020886035EDIELIO JUCA DE ARAUJO                              
0000007725130720221510I016020955223ELINALDO DIAS RIBEIRO                               
0000007735130720221510I016020977707HENRIQUE BARBOSA NASCIMENTO                         
0000007745130720221510I016021447736DIEGO DOS REIS SANTOS                               
0000007755130720221510I016021488807EDI CARLOS PEREIRA                                  
0000007765130720221510I016022960046ADELMO DA LUZ REIS                                  
0000007775130720221510I016022961670ADILSON GUEDES REBOUCAS                             
0000007785130720221510I016022980578ALEXANDRO PEREIRA FONSECA                           
0000007795130720221510I016023115099EDSON NASCIMENTO LOBO                               
0000007805130720221510I016023467416EDSON SOARES NASCIMENTO                             
0000007815130720221510I016024630523HEBERTE CONCEICAO ROCHA                             
0000007825130720221510I016025000418EPITACIO DE FREITAS BARBOSA                         
0000007835130720221510I016027025019ANDERSON DA CONCEICAO LIMA                          
0000007845130720221510I016037604704ARLEITON DE ARAUJO LIMA                             
0000007855130720221510I016041803759ADRIANO RODRIGUES DE OLIVEIRA                       
0000007865130720221510I016043986168ROMARIO BRAZ LIMA                                   
0000007875130720221510I016044176852JARDEL DE SOUZA FERREIRA                            
0000007885130720221510I016044600123DANILO SANTOS DA SILVA                              
0000007895130720221510I016045425740ROBSON DE OLIVEIRA BATISTA                          
0000007905130720221510I016046655391JOSE ADRIANO DA COSTA COSTA                         
0000007915130720221510I016046751323LUCAS DOS SANTOS XAVIER                             
0000007925130720221510I016048024895JADSON FERREIRA DE MORAIS                           
0000007935130720221510I016048035412JARIO FERREIRA DE MORAIS                            
0000007945130720221510I016049526517CICERO DAVI GOMES                                   
0000007955130720221510I016057123272JOSE PEREIRA FILHO                                  
0000007965130720221510I016069496370FELIPE CUNHA DA SILVA LIMA                          
0000007975130720221510I016075090526PAULO GOMES DOS SANTOS                              
0000007985130720221510I016075680897EMERSON SILVA DOS SANTOS                            
0000007995130720221510I016077719960NIVALDO PAIVA MAIA                                  
0000008005130720221510I016088679272ELINALDO DOS SANTOS SANTANA                         
0000008015130720221510I016089187764ANDERSON TAVARES XAVIER                             
0000008025130720221510I016094130066ADAILTON DO SACRAMENTO LADISLA                      
0000008035130720221510I016094893590ALLAN SANTANA                                       
0000008045130720221510I016099526545EMERSON BRITO DOS SANTOS                            
0000008055130720221510I016100586291ADELSON DE JESUS SILVA                              
0000008065130720221510I016104544887HELIO NASCIMENTO DOS SANTOS                         
0000008075130720221510I016110032930ADENILSON DE JESUS RAMOS                            
0000008085130720221510I016110188191ANA MARIA DOS SANTOS                                
0000008095130720221510I016112068169EDNILTON DE SOUZA DOS SANTOS D                      
0000008105130720221510I016114126891DIEGO NASCIMENTO DIAS                               
0000008115130720221510I016114158920EFERTON CALDAS DA SILVA                             
0000008125130720221510I016114529457DOUGLAS DE SILVA OLIVEIRA                           
0000008135130720221510I016121345676EDEVALDO LUSTOSA DOS SANTOS                         
0000008145130720221510I016124041376DANIEL SILVA DE ALMEIDA                             
0000008155130720221510I016124044987DANILO SILVA DE ALMEIDA                             
0000008165130720221510I016124718139EDUARDO DA SILVA SANTOS                             
0000008175130720221510I016125525288BRUNO DA PAIXAO DE SOUZA                            
0000008185130720221510I016126209479ANA RENATA RODRIGUES DA SILV                        
0000008195130720221510I016127649766AGUIGSON ANTONIO SILVA OLIVEIR                      
0000008205130720221510I016138084919DAVID RIBEIRO DOS SANTOS                            
0000008215130720221510I016145736608ANTONIO CARLOS DE SOUZA DIAS                        
0000008225130720221510I016149249728MELCIDES NASCIMENTO DOS SANTOS                      
0000008235130720221510I016154449314ERIC HENRIQUE PEREIRA DOS SANT                      
0000008245130720221510I016155761974ELISSON DOS SANTOS DE SOUZA                         
0000008255130720221510I016156188399ERON PIRES DE JESUS JUNIOR                          
0000008265130720221510I016157419297DAVI DOS SANTOS LINHARES                            
0000008275130720221510I016157491338ANDRE LUIS SANTOS DO NASCIMENT                      
0000008285130720221510I016161995027ANTONIO DIAS DE OLIVEIRA JUNIO                      
0000008295130720221510I016165735186AILTON VIEIRA DE SOUZA                              
0000008305130720221510I016168066390DANIEL SANTANA BARBOSA                              
0000008315130720221510I016176288895JOSENILTON SANTANA DA CONCEICA                      
0000008325130720221510I016178616180JARLAN JESUS DOS SANTOS                             
0000008335130720221510I016180190497JOSE NILSON DOS SANTOS                              
0000008345130720221510I016182975505JOSE CARLOS SOUZA DOS SANTOS                        
0000008355130720221510I016187065035JOHNNY DA CONCEICAO BISPO                           
0000008365130720221510I016187177976JOSE ROBERTO DE JESUS FILHO                         
0000008375130720221510I016187680457FERNANDO MOTA DA SILVA                              
0000008385130720221510I016187807392ISMAEL DE FREITAS LO                                
0000008395130720221510I016187938950JEREMIAS DE JESUS CARDEAL                           
0000008405130720221510I016188015422JORGE ALVES DA PAIXAO                               
0000008415130720221510I016188825785IVANILSON CERQUEIRA DA SILVA                        
0000008425130720221510I016189079653GILDEMBERG DOS SANTOS DA SILVA                      
0000008435130720221510I016189574913CLAUDIO SANTOS DA SILVA                             
0000008445130720221510I016190914900FLAVIANO DOS SANTOS CAVALCANTE                      
0000008455130720221510I016190998985FREDSON DOS SANTOS CAVALCANTE                       
0000008465130720221510I016191211598JAZIEL MENDES SANTOS                                
0000008475130720221510I016191422475JOSEVAN SANTOS SILVA                                
0000008485130720221510I016191880562FELIPE FERNANDES DE SOUZA                           
0000008495130720221510I016193567187JADILSON SANTOS DA SILVA                            
0000008505130720221510I016194246406GILDEAN DOS SANTOS ANDRADE                          
0000008515130720221510I016195140504JAILSON CARLOS DOS SANTOS                           
0000008525130720221510I016195756130GEOVANE SILVA DOS SANTOS                            
0000008535130720221510I016195801136GILVAN DOS SANTOS LINHARES                          
0000008545130720221510I016196152506YAGO MUNIZ DA CONCEICAO                             
0000008555130720221510I016196359720GILBERTO FELIX DA SILVA JUNIOR                      
0000008565130720221510I016196608135CARLOS ALBERTO COSTA SILVEIRA                       
0000008575130720221510I016196655184CLAUDIO HENRIQUE CONCEICAO DA                       
0000008585130720221510I016198011071JADERSON BORGES VIEIRA                              
0000008595130720221510I016198015131JAILTON ALMEIDA DO NASCIMENTO                       
0000008605130720221510I016198039901GEOMAR BARBOSA DOS SANTOS                           
0000008615130720221510I016198059309GILVAN ALMEIDA DO NASCIMENTO                        
0000008625130720221510I016198161081CLEBER SILVA DE JESUS                               
0000008635130720221510I016198385451ISMAEL BATISTA NUNES                                
0000008645130720221510I016199409621FRANCISCO ASSIS DE JESUS JUNIO                      
0000008655130720221510I016199966571JACKSON DOS SANTOS BEZERRA                          
0000008665130720221510I016200149950ISAAC MENEZES LOPES                                 
0000008675130720221510I016200812862JAILSON FERREIRA DE MORAIS                          
0000008685130720221510I016201821032JAILSON DE JESUS SOUZA                              
0000008695130720221510I016201890611JOHNATA OLIVEIRA DA SILVA                           
0000008705130720221510I016201898132JORGE FERREIRA DOS SANTOS JUNI                      
0000008715130720221510I016202352761JOILSON SOUZA SANTOS                                
0000008725130720221510I016204749006KASSIA MAIA GADELHA                                 
0000008735130720221510I016210318070ISRAEL LIMA DA SILVA                                
0000008745130720221510I016211099291JUTAI DE MENEZES LEAO                               
0000008755130720221510I016211697636CLEIDSON MACEDO DE OLIVEIRA                         
0000008765130720221510I016217995205JAILSON ALMEIDA DO NASCIMENTO                       
0000008775130720221510I016218070299GEORGE SANTOS DE BRITO                              
0000008785130720221510I016218126200GILMARIO JESUS DOS SANTOS                           
0000008795130720221510I016218243851JOSE RODRIGO ARAUJO DA CONCEIC                      
0000008805130720221510I016218364829JOANDRO DA CONCEICAO LIMA                           
0000008815130720221510I016218432190JULIO RAMOS DOS SANTOS                              
0000008825130720221510I016229093090GILVAN SANTANA SILVA                                
0000008835130720221510I016232407963JERLIAN SOUZA SANTOS                                
0000008845130720221510I016234869336GILSON DOS ANJOS DE ARAUJO                          
0000008855130720221510I016235147148JOAO DE ALMEIDA BATISTA                             
0000008865130720221510I016237896024IGOR DA SILVA SANTOS                                
0000008875130720221510I016238408902JOSE CLEVIO GOMES DOS SANTOS                        
0000008885130720221510I016238412683JOSE DOMINGOS DOS SANTOS SILVA                      
0000008895130720221510I016238674661GLEIDSON PEREIRA DE SOUZA OLIV                      
0000008905130720221510I016240948307GABRIEL LOPES BISPO                                 
0000008915130720221510I016245976236IZAIAS ROSARIO SILVA DA CONCEI                      
0000008925130720221510I016246260668GUSTAVO LISBOA LIMA                                 
0000008935130720221510I016246492135JOILSON DE JESUS SILVA                              
0000008945130720221510I016246718141JOSEVAL DE JESUS PARAGUASSU                         
0000008955130720221510I016246751041JOSE CRISPIM LOPES XAVIER                           
0000008965130720221510I016248041610JOSE GILTON DA SILVA RODRIGUES                      
0000008975130720221510I016249575716JACKSON CONCEICAO PINTO DA SIL                      
0000008985130720221510I016249910566JOSE NILTON CONCEICAO DA SILVA                      
0000008995130720221510I016254546346FRANCLIN DE JESUS DE BRITO                          
0000009005130720221510I016254561957JACSON BORGES SILVA                                 
0000009015130720221510I016255300383IVAN CLEBER DOS SANTOS                              
0000009025130720221510I016263899264JOSE PAULO DOS SANTOS PASSOS                        
0000009035130720221510I016277755820JOSE ADRIEL PEREIRA ALVES                           
0000009045130720221510I016282656827GILMAR DOS SANTOS JUNIOR                            
0000009055130720221510I016282760837JOSE SILVA XAVIER                                   
0000009065130720221510I016284686111FABIO SOUZA DA SILVA                                
0000009075130720221510I016286879189JEFFERSON CONCEICAO DOS SANTOS                      
0000009085130720221510I016287369265FLORISVALDO FRANCINO VIEIRA DE                      
0000009095130720221510I016287397366ISTARLE BISPO DOS SANTOS                            
0000009105130720221510I016290920031JULIANO DOS SANTOS SOUZA                            
0000009115130720221510I016298259202YAGO RODOLFO XAVIER DOS SANTOS                      
0000009125130720221510I016301658346JOADSON DOS SANTOS ZACARIAS AL                      
0000009135130720221510I016305559253FERNANDA DA PAIXAO SANTOS                           
0000009145130720221510I016305963410IGOR FELIPE DA ANUNCIACAO OLIV                      
0000009155130720221510I016308554538EZEQUIEL DE SANTANA SILVA                           
0000009165130720221510I016311192374CARLOS ANTONIO DOS SANTOS BARB                      
0000009175130720221510I016331402048GABRIEL SILVA DE ALMEIDA                            
0000009185130720221510I016332951428JUNIOR DA CONCEICAO BISPO NEVE                      
0000009195130720221510I016346871901JAELSON DA SILVA TEIXEIRA                           
0000009205130720221510I016358124820LUCIANO GOMES SILVA                                 
0000009215130720221510I016362465785LEANDRO BEZERRA DE SOUSA                            
0000009225130720221510I016363364664LEANDRO DOS SANTOS                                  
0000009235130720221510I016363389918LENILSON SANTOS DE JESUS                            
0000009245130720221510I016364967869MARCOS BISPO DOS SANTOS                             
0000009255130720221510I016369362523LEANDRO JOSE DE JESUS SANTOS                        
0000009265130720221510I016369663523MARCELO DOS SANTOS DE SANTANA                       
0000009275130720221510I016370182347LEANDRO SOUZA DO ROSARIO SILVA                      
0000009285130720221510I016370583368MARLON VITORIO SILVA                                
0000009295130720221510I016371164873MARCOS ANTONIO SANTANA SILVEIR                      
0000009305130720221510I016372320992LEANDRO BANDEIRA SANTOS                             
0000009315130720221510I016383564529MAGNO DOS SANTOS BISPO                              
0000009325130720221510I016384499003MIGUEL ALVES DOS SANTOS JUNIOR                      
0000009335130720221510I016386220812LUCIANO FRANCISCO DOS SANTOS                        
0000009345130720221510I016388346376LEOMI SILVA DE SOUZA                                
0000009355130720221510I016391397288CARLOS WILKER CONCEICAO SANTOS                      
0000009365130720221510I016391708305CARLOS ANTONIO SALES FERREIRA                       
0000009375130720221510I016391865648LEONARDO SANTOS BARBOSA                             
0000009385130720221510I016391906476LUA PAIVA DE ALMEIDA                                
0000009395130720221510I016398212860MARCOS ADRIANO SANTOS ANDRADE                       
0000009405130720221510I016408860983MAICO DE OLIVEIRA ALVES                             
0000009415130720221510I016412426044LUCAS DE BARROS DOS SANTOS                          
0000009425130720221510I016413529963LUIS CARLOS DOS SANTOS JUNIOR                       
0000009435130720221510I016415577108MARCO ANTONIO RAMOS MOURA                           
0000009445130720221510I016416388317LEONAM CRUZ DA CONCEICAO                            
0000009455130720221510I016418514247MARIVAN VIEIRA PINHO                                
0000009465130720221510I016419382808CLAUDEMIRO VIEIRA DA SILVA                          
0000009475130720221510I016424683438LUCIANO PEREIRA DE BRITO                            
0000009485130720221510I016426536122MOISES RUBEM SANTOS MACEDO                          
0000009495130720221510I016429214908CARLOS ALBERTO DE JESUS DOS SA                      
0000009505130720221510I016430248527MANOEL CONCEICAO DA SILVA                           
0000009515130720221510I016431617453MARCOS PAULO MARQUES DOS SANTO                      
0000009525130720221510I016433042679LENTINI ARAUJO PANDINI SANTANA                      
0000009535130720221510I016434916230MAURICIO SANTANA ANDRADE                            
0000009545130720221510I016438677656MAURICIO CORREIA DOS SANTOS JU                      
0000009555130720221510I016441554500KELVIN DOS SANTOS SANTANA                           
0000009565130720221510I016451564169LUIS DA SILVA RODRIGUES                             
0000009575130720221510I016455665903MARCIO LIMA DE OLIVEIRA                             
0000009585130720221510I016455687494CLAUDISNEI CONCEICAO DOS SANTO                      
0000009595130720221510I016456132739CARLOS HENRIQUE SILVA SOARES                        
0000009605130720221510I016456355258LUCIMAR NEPOMUCENO SACRAMENTO                       
0000009615130720221510I016457582150LUCAS NUNES MAGALHAES                               
0000009625130720221510I016461401858CARLOS JOSE BISPO DE SOUZA                          
0000009635130720221510I016462477602LUCAS PALMEIRA DOS SANTOS                           
0000009645130720221510I016466865909CLESSIO BARBOSA SANTOS                              
0000009655130720221510I016469731334CARLOS EDUARDO TELES RODRIGUES                      
0000009665130720221510I016470901809CRISTIAN BRANDAO TAVARES                            
0000009675130720221510I016473469304KEVIN SENA PESSOA                                   
0000009685130720221510I016483861886LEVI DOS SANTOS MACEDO                              
0000009695130720221510I016497704982LUIZ VINICIUS BARROS COSTA                          
0000009705130720221510I016501525218LUIS HENRIQUE PEREIRA ALMEIDA                       
0000009715130720221510I016508502264MATEUS DA SILVA SANTOS                              
0000009725130720221510I016529302000PAULO ELISSON DANTAS                                
0000009735130720221510I016535262252RAPHAEL COUTINHO DA SILVA                           
0000009745130720221510I016535953131ROBERVALDO BEZERRA DA SILVA                         
0000009755130720221510I016537794634ROMENILDO ALVES DOS SANTOS                          
0000009765130720221510I016537870403SAMUEL SOARES DA PAES                               
0000009775130720221510I016537900647SIDNEY DE JESUS CONCEICAO                           
0000009785130720221510I016537983798TATIANE PEREIRA DA SILVA                            
0000009795130720221510I016538015728UBIRATAN GOMES ALVES                                
0000009805130720221510I016538087419WELINGTON BISPO ROCHA                               
0000009815130720221510I016538103422WESLEY FERREIRA DE MATOS                            
0000009825130720221510I016538364102THIAGO TAVARES NASCIMENTO                           
0000009835130720221510I016538401164VALTIELI FIGUEIREDO MACEDO                          
0000009845130720221510I016538624880PAULO MARCIEL DE JESUS ALMEIDA                      
0000009855130720221510I016539262605TYRONE SANTANA DE ALMEIDA                           
0000009865130720221510I016539365323VALDOMIRO DE JESUS FERREIRA                         
0000009875130720221510I016541375772TASSIO DO NASCIMENTO RIBEIRO                        
0000009885130720221510I016543602210TIAGO COSTA JESUS                                   
0000009895130720221510I016544706788RODRIGO DA SILVA FERREIRA                           
0000009905130720221510I016546446791WELLINGTON DE OLIVEIRA TAVARES                      
0000009915130720221510I016548173199MIROVALDO OLIVEIRA DOS SANTOS                       
0000009925130720221510I016549338515ROMARIO CONCEICAO DOS SANTOS                        
0000009935130720221510I016549342814RONALDO CONCEICAO DOS SANTOS                        
0000009945130720221510I016549549214ZENON CAVALCANTE BRITO                              
0000009955130720221510I016550221812UEDSON CANDIDO DE ARAUJO                            
0000009965130720221510I016551528695PABLO DE SANTANA MIRANDA                            
0000009975130720221510I016551691332THAILIS TAIRONE DE OLIVEIRA SO                      
0000009985130720221510I016554481819UANDERSON ECA DOS SANTOS                            
0000009995130720221510I016555056178RAFAEL DOS SANTOS CAMPOS                            
0000010005130720221510I016558481457SAMUEL ROBERTO DA SILVA                             
0000010015130720221510I016560039138SERGIO DOS SANTOS VIEIRA                            
0000010025130720221510I016560753477RONILDO CARVALHO DE SOUZA                           
0000010035130720221510I016560766803SERGIO SILVA GOMES                                  
0000010045130720221510I016561579500SANDRO MACEDO DA SILVA                              
0000010055130720221510I016566571664PAULO HENRIQUE SANTOS DA SILVA                      
0000010065130720221510I016566850237ORLANDO ALVES BATISTA                               
0000010075130720221510I016567587521PAULO ROGERIO SILVA DOS REIS                        
0000010085130720221510I016567662299RAILSON DOS SANTOS                                  
0000010095130720221510I016567984032ISLAM LIMA NEPOMUCENO                               
0000010105130720221510I016568057224VALNEI NUNES DE FRANCA                              
0000010115130720221510I016573601646RONIERIO RODRIGUES DE JESUS                         
0000010125130720221510I016573952589TIAGO RODRIGUES DE JESUS SANTO                      
0000010135130720221510I016579273934VALMIRO DA SILVA SANTOS SOUZA                       
0000010145130720221510I016582676513SIDIVAN PEREIRA DE JESUS                            
0000010155130720221510I016583190126NADJON SOUZA CARVALHO                               
0000010165130720221510I016587480153RODRIGO BATISTA DOS REIS                            
0000010175130720221510I016587528229THIAGO DA SILVA SANTOS                              
0000010185130720221510I016590683388ROGERIO SANTOS DE JESUS                             
0000010195130720221510I016602797647PATRICIO ASSIS SOUSA                                
0000010205130720221510I016603944236RAFAEL MASSA OLIVEIRA                               
0000010215130720221510I016613212416NIKEL SANTOS MOREIRA                                
0000010225130720221510I016613240282SERGIO ANTHONY DOS SANTOS DE S                      
0000010235130720221510I016613696057VALDEMIR SANTOS ALVES                               
0000010245130720221510I016616829554MICHAEL BARRETO MACHADO SANTOS                      
0000010255130720221510I016617454155VIVIANE OTILIA DO NASCIMENTO                        
0000010265130720221510I016628680909RICARDO WILTON DOS SANTOS PAIM                      
0000010275130720221510I016631355096WILLIAM DOS SANTOS FERREIRA                         
0000010285130720221510I016631736553ROBSON DE JESUS PROFETA                             
0000010295130720221510I016632057218SEBASTIAO DA CONCEICAO DE ALME                      
0000010305130720221510I016632519424VINICIUS DA SILVA MOREIRA DE S                      
0000010315130720221510I016632550941RAMON SANTOS DE SOUZA                               
0000010325130720221510I016637418634THIAGO DOS SANTOS BARBOSA SILV                      
0000010335130720221510I016641995225VICTOR GOMES FALCAO                                 
0000010345130720221510I016648549832REGINALDO LOPES DE OLIVEIRA JU                      
0000010355130720221510I016648564505ROBSON DOS SANTOS FERREIRA                          
0000010365130720221510I016650115178VICTOR CAUA SANTOS BISPO                            
0000010375130720221510I016663767683WELBERTE RIOS SILVA                                 
0000010385130720221510I016664364906WILLIAM SANTOS PINHEIRO                             
0000010395130720221510I016667558604WILLIAM LEONARDO SANTOS LEANDR                      
0000010405130720221510I016681329838RUAN CARLOS FIGUEIREDO OLIVEIR                      
0000010415130720221510I016688327407MICHEL LOPES DO NASCIMENTO                          
0000010425130720221510I016691770391PATRICK LUIZ SERGIO SANTOS                          
0000010435130720221510I016692353107RAY FERREIRA NASCIMENTO                             
0000010445130720221510I016846970755CAUA CONCEICAO DOS SANTOS                           
0000010455130720221510I017018941308ALBERTO CARLOS FERREIRA DA SIL                      
0000010465130720221510I017034694441JURANDIR SANTOS CRUZ                                
0000010475130720221510I017053323852ADILSON CHAVES DOS SANTOS                           
0000010485130720221510I017068778184ALOISIO BATISTA DE ARAUJO                           
0000010495130720221510I017068780340ROBERTO DE JESUS DOS SANTOS                         
0000010505130720221510I017068781800MARCIO SANTOS CARVALHO                              
0000010515130720221510I017068783277REGINALDO MENDES DA SILVA                           
0000010525130720221510I017071977958JOSENILDA NASCIMENTO DE MATOS                       
0000010535130720221510I018221173628RICARDO CONCEICAO DOS REIS                          
0000010545130720221510I019001647831PAULO DE TARSO SILVA ROCHA JUN                      
0000010555130720221510I019002500516JULIVAN CORDEIRO DOS SANTOS                         
0000010565130720221510I019006361707DEBORA LUCIANA BARACHO RAMALHO                      
0000010575130720221510I019009552988SANDRA REGINA LEAL DA COSTA                         
0000010585130720221510I019009558250JORGE DE SOUZA CAMPOS                               
0000010595130720221510I019011625415ELIELSON SANTOS BISPO                               
0000010605130720221510I019012467600NERIVALDO SOUZA DA CONCEICAO                        
0000010615130720221510I019013958918REGINALDO DOS SANTOS SILVA DE                       
0000010625130720221510I019017032785RICARDO DE SOUZA GOMES                              
0000010635130720221510I019017060150ILTON DE SA DOS SANTOS                              
0000010645130720221510I019042593434JORGE HENRIQUE FERREIRA DOS SA                      
0000010655130720221510I019060098180MIKAEL SILVA DOS SANTOS                             
0000010665130720221510I020009062933ANDERSON ROCHA NEVES                                
0000010675130720221510I020009273969ANTONIO DE PADUA ROCHA DE FREI                      
0000010685130720221510I020010961113EMERSON BITENCOURT SENA                             
0000010695130720221510I020011229033FAGNER ANDRADE DOS SANTOS                           
0000010705130720221510I020011244237FELIPE CARLOS CARVALHO SANTOS                       
0000010715130720221510I020011600734GILSON CARLOS OLIVEIRA DE SOUZ                      
0000010725130720221510I020012171918JACKSON NOGUEIRA DOS SANTOS                         
0000010735130720221510I020012300297JEFERSON FREITAS DOS SANTOS                         
0000010745130720221510I020012504135JOAQUIM SILVA DE MATOS                              
0000010755130720221510I020012673964JOSE CARLOS SILVA DE SOUZA JUN                      
0000010765130720221510I020019885231MANOEL SANTOS DA SILVA                              
0000010775130720221510I020019981273MARCIO DA LUZ SILVA                                 
0000010785130720221510I020019991252MARCIO NASCIMENTO GOES                              
0000010795130720221510I020021745565ROBSON NOGUEIRA DE MATTOS                           
0000010805130720221510I020021746839ROBSON PINTO REGO                                   
0000010815130720221510I020022572834THIAGO LIMA CELESTINO                               
0000010825130720221510I020023007510WELTON MOREIRA DOS SANTOS                           
0000010835130720221510I020023532305ANDERSON FRANCO MEDEIROS DE FA                      
0000010845130720221510I020024186907DANIEL SANTOS GONZALEZ                              
0000010855130720221510I020024876458FLAVIO BEZERRA DA SILVA                             
0000010865130720221510I020025647231JOSE ADRIANO DA SILVA ALMEIDA                       
0000010875130720221510I020027331525ERICK SANTOS MOURA                                  
0000010885130720221510I020027434855FABIO ALMEIDA SOUZA                                 
0000010895130720221510I020027626665GENIVALDO PEREIRA BISPO DOS SA                      
0000010905130720221510I020027986289IVO ALVES GOES JUNIOR                               
0000010915130720221510I020028047464JAILSON LIMA DOS SANTOS                             
0000010925130720221510I020031854723ADRIANO DOS SANTOS PEREIRA                          
0000010935130720221510I020032014370ANDERSON ESTRELA DANTAS                             
0000010945130720221510I020040111576LUCAS DOS SANTOS DA CRUZ                            
0000010955130720221510I020049655420MATHEUS IZACK AQUINO DE SOUZA                       
0000010965130720221510I020049912393RONALDO CLEMENTE DE OLIVEIRA                        
0000010975130720221510I020049914515FLAVIO DE JESUS BRITO                               
0000010985130720221510I020049914620VINICIUS SANTANA DOS SANTOS                         
0000010995130720221510I020049988624MARCOS KELVIN PEREIRA GONZAGA                       
0000011005130720221510I020050006716JOSIEL SANTOS ALENCAR                               
0000011015130720221510I020050010373ANDERSON SOUZA DA SILVA                             
0000011025130720221510I020050011531EDIVAN DOS SANTOS ALVES                             
0000011035130720221510I020053089892FRANCISCO CARLOS DE JESUS SANT                      
0000011045130720221510I020054212949WALTER BERGUE DA SILVA MOREIRA                      
0000011055130720221510I020054217681ELIAN LUCAS DA SILVA                                
0000011065130720221510I020054219064LUCAS DE JESUS FERREIRA                             
0000011075130720221510I020054223061GEOVANE DA SILVA CUSTODIO                           
0000011085130720221510I020054226575ROBERTO GARCES DA NOBREGA JUNI                      
0000011095130720221510I020054226583SAMUEL SILVA DA NOBREGA                             
0000011105130720221510I020054230653RODRIGO SANTOS SILVA                                
0000011115130720221510I020054230912UEDSON PEREIRA DA SILVA                             
0000011125130720221510I020054230920UESLEI PEREIRA DA SILVA                             
0000011135130720221510I020054236686ROGERIO SANTOS COSTA                                
0000011145130720221510I020054239847JOSE LUIZ SANTOS DE SOUZA                           
0000011155130720221510I020054239898ELIAS DE ALMEIDA SILVA                              
0000011165130720221510I020054248676LEANDRO DOS ANJOS GONCALVES                         
0000011175130720221510I020054249087ERIC VELOSO DOS SANTOS                              
0000011185130720221510I020054252878IVAN CARLOS SANTOS DE SOUZA                         
0000011195130720221510I020054254463ELIVELTON FAUSTINO SANT ANA                         
0000011205130720221510I020054255036EMANUEL DOS SANTOS DE DEUS                          
0000011215130720221510I020054255621JOANAIARA MACHADO DE SANTANA                        
0000011225130720221510I020054257276ADEILSON LIMA DOS SANTOS                            
0000011235130720221510I020054257373SILAS PEDRO FONTES DOS SANTOS                       
0000011245130720221510I020054267972JONATAS VALENCO SOBRAL DE OLIV                      
0000011255130720221510I020057216546RICARDO DOS SANTOS VENANCIO                         
0000011265130720221510I020060222500JOSEVAN ALVES BINA                                  
0000011275130720221510I020060222691ELINALDO EVANGELISTA LOPES                          
0000011285130720221510I020064630697FABIO BELON DE ANDRADE                              
0000011295130720221510I020064649762ANDERSON SOARES DA SILVA                            
0000011305130720221510I020064652119ELIAS JOAO DA SILVA                                 
0000011315130720221510I020064657099MAICON JACO SILVA                                   
