0000000001101737963000720000000000000MONSERTEC ENGENHARIA LTDA                                                                                                                             000090036500482480101201429112023291120230907
000000001601012014000002
0000000024010120140000270420221512
000000003627042022151402
000000004627042022151502
000000005627042022161202
000000006627042022161201
000000007627042022163302
000000008627042022163406
000000009619092022102202
0000000104190920221105190920221105
0000000112190920221108101737963000720000000000000MONSERTEC ENGENHARIA LTDA                                                                                                                             PV13 BIO-05                                                                                         
0000000125190920221108I010063987101ADAILTON WANDEGA ALMEIDA                            
0000000135190920221108I010086679780WASHINGTON LUIS MOURA PINHO                         
0000000145190920221108I010264444407ARLINDO SOUZA MACHADO                               
0000000155190920221108I010675099452ANTONIO ALVES DE SOUZA                              
0000000165190920221108I010727580946ADEMARIO DIAS DOS SANTOS                            
0000000175190920221108I010776511766JUAREZ INACIO DOS SANTOS                            
0000000185190920221108I010789344715RENATO NASCIMENTO CONCEICAO                         
0000000195190920221108I010809051300MARIALDO ARCANJO DOS SANTOS                         
0000000205190920221108I010872996473CARLOS ANTONIO DE SOUSA                             
0000000215190920221108I010873011292MANOEL DA LAPA SILVA FERREIRA                       
0000000225190920221108I010896888484FRANCISCO DE SOUSA SILVA                            
0000000235190920221108I012003023722ALBERTO ROQUE SOUSA DE CARVALH                      
0000000245190920221108I012003045092JOSE CARLOS DE SANTANA                              
0000000255190920221108I012031951256ANTONIO RIBEIRO DA SILVA                            
0000000265190920221108I012044247374MARIO JOSELIO JESUS DE SANTANA                      
0000000275190920221108I012049422204JUAREZ BARRETO LEMOS                                
0000000285190920221108I012049470861PAULO MIRANDA MAGALHAES                             
0000000295190920221108I012054722687JEIEL COUTO SOBRINHO                                
0000000305190920221108I012054738273PEDRO FRANCISCO DE OLIVEIRA FI                      
0000000315190920221108I012071078987GUILHERMINO FERNANDES DOS SANT                      
0000000325190920221108I012079152140EVERALDO BARBOZA LISBOA                             
0000000335190920221108I012079300190JOSE ALVES DE ARAUJO                                
0000000345190920221108I012079311354ANTONIO DECIO SILVA LOPES                           
0000000355190920221108I012089961181EVANDRO DE SANTANA SOUZA                            
0000000365190920221108I012097574515JOSE MOURA                                          
0000000375190920221108I012100241208JOSE COSME DOS SANTOS                               
0000000385190920221108I012107742865EDILSON PORTO DOS SANTOS                            
0000000395190920221108I012118178990VIVALDO DOS SANTOS                                  
0000000405190920221108I012118339609JAIME VIEIRA DE ALMEIDA                             
0000000415190920221108I012121721225ANTONIO MEDRADO ALVES DOS SANT                      
0000000425190920221108I012140113421ERICO HARDT                                         
0000000435190920221108I012141336106AILTON PEREIRA DA SILVA                             
0000000445190920221108I012150518009JORGE PEREIRA DA MOTA FILHO                         
0000000455190920221108I012157458931AMILTON ARAUJO DO NASCIMENTO                        
0000000465190920221108I012176051035DERALDO RODRIGUES DOS SANTOS                        
0000000475190920221108I012176111631RAIMUNDO NONATO DE ARAUJO SANT                      
0000000485190920221108I012176911123ANAILSON GOMES ANUNCIACAO                           
0000000495190920221108I012177356271ADEMARIO BARBOSA                                    
0000000505190920221108I012195269768JOSE SEBASTIAO MENEZES COSTA                        
0000000515190920221108I012202416910ALOISIO SANTOS ALVES                                
0000000525190920221108I012202665570JOSE CARLOS DE JESUS SOUZA                          
0000000535190920221108I012222237973OSVALDO DE OLIVEIRA FILHO                           
0000000545190920221108I012240676088JOSE DOS SANTOS ALVES                               
0000000555190920221108I012246300047NADIVALDO DOS SANTOS LIMA                           
0000000565190920221108I012250323463JOSE CARLOS GOMES DA SILVA                          
0000000575190920221108I012260236490AGNALDO SOUSA SANTOS                                
0000000585190920221108I012273686929ANTONIO PEREIRA DA SILVA                            
0000000595190920221108I012273783452JOSE ALBERTO MATOS DE LIMA                          
0000000605190920221108I012273825465JOZIVALDO CAVALCANTE NEPOMUCEN                      
0000000615190920221108I012273894718CARLOS JOSE COSTA                                   
0000000625190920221108I012273939126LUIS AVACY DOS SANTOS LIMA                          
0000000635190920221108I012273941341SILVANO DE MATOS ROQUE                              
0000000645190920221108I012274000702MANOEL MENDES DE SOUZA FILHO                        
0000000655190920221108I012281148485JOSE BATISTA LIMA                                   
0000000665190920221108I012281192417PEDRO DIAS DOS SANTOS                               
0000000675190920221108I012281222022WASHINGTON DA CRUZ SILVA                            
0000000685190920221108I012281223568ALMIR ALVES DE ALMEIDA                              
0000000695190920221108I012281248471JOAO DILSON ASSIS DE LIMA                           
0000000705190920221108I012291156936DARIO MENEZES DE ASSIS                              
0000000715190920221108I012291267169ANTONIO CARLOS DE ANDRADE                           
0000000725190920221108I012291295006JORGE MIRANDA DA SILVA FILHO                        
0000000735190920221108I012291301227REGINALDO DA SILVA MOURA                            
0000000745190920221108I012296576127ROQUE GERALDO DA SILVA FILHO                        
0000000755190920221108I012296615955JOSE CARLOS ROCHA DA SILVA                          
0000000765190920221108I012296959247FLORISVALDO DE JESUS SOUZA                          
0000000775190920221108I012296959972RILDO NORMANDES DE SOUZA SILVA                      
0000000785190920221108I012296960628DAMIAO SALUSTIANO DE JESUS                          
0000000795190920221108I012296973762MARIVALDO DIAS DOS SANTOS                           
0000000805190920221108I012296994182PEDRO PAULO FERREIRA DE OLIVEI                      
0000000815190920221108I012308100925HELIO ALVES BORGES                                  
0000000825190920221108I012311794592JOAO CARLOS GOMES DOS SANTOS                        
0000000835190920221108I012318611493GERSON LUIZ RIBEIRO GOMES                           
0000000845190920221108I012318711587WILSON CERQUEIRA LIMA                               
0000000855190920221108I012318889947EDILSON SIMOES                                      
0000000865190920221108I012318965279MANOEL CERQUEIRA MASCARENHAS N                      
0000000875190920221108I012321634881RAIMUNDO SANTOS DA CONCEICAO                        
0000000885190920221108I012321719674ROBSON GONCALVES DOS REIS                           
0000000895190920221108I012321869285ROQUE GENIVALDO FIGUEREDO SANT                      
0000000905190920221108I012327328650JOSE ELINALDO SANTOS BISPO                          
0000000915190920221108I012327348309JOSE SILVA FREITAS                                  
0000000925190920221108I012327687006AGINALDO NASCIMENTO DE QUEIROZ                      
0000000935190920221108I012346907040SIDUARTE DE JESUS                                   
0000000945190920221108I012355152480JORGELENE DE JESUS SANTOS                           
0000000955190920221108I012355205754JOSE MARTINS GOMES                                  
0000000965190920221108I012355243818ERUATA EMANUEL LIMA DE JESUS                        
0000000975190920221108I012355287904SAMUEL DOS REIS SILVA                               
0000000985190920221108I012355517713MARIVALDO DA SILVA                                  
0000000995190920221108I012360435223LEONIDAS DE JESUS FERREIRA                          
0000001005190920221108I012360499752DARIO PEREIRA DE SANTANA                            
0000001015190920221108I012360499787CARLOS DOS SANTOS SILVA                             
0000001025190920221108I012360571658MIGUEL DE OLIVEIRA CARVALHO                         
0000001035190920221108I012360683340ELISIO DAMIAO DOS SANTOS FILHO                      
0000001045190920221108I012362427910ELIELSON NASCIMENTO DE SANTANA                      
0000001055190920221108I012362458646JOSE BISPO DOS SANTOS                               
0000001065190920221108I012374223762VALTER MARTINEZ BITENCOURT                          
0000001075190920221108I012377385836JURACY SILVA DOS SANTOS                             
0000001085190920221108I012377402889ELIEL COSTA DA CRUZ                                 
0000001095190920221108I012377503685EDMILSON SANTOS PAIXAO                              
0000001105190920221108I012377571281ANTONIO CARLOS OLIVEIRA RAMOS                       
0000001115190920221108I012384561598IVANILDO RODRIGUES DE OLIVEIRA                      
0000001125190920221108I012384706146JOSANILTON CONCEICAO DO ROSARI                      
0000001135190920221108I012384706456ANTONIO MARCOS PALMEIRA                             
0000001145190920221108I012384897383PAULO ROBERTO RODRIGUES BENEVI                      
0000001155190920221108I012384928688SERGIO LUIS SANTOS MOURA                            
0000001165190920221108I012386191836MANOEL MESSIAS NOBRE                                
0000001175190920221108I012394116007NIVALDO SILVA                                       
0000001185190920221108I012395258174MARCIO SALLES SANT ANNA                             
0000001195190920221108I012395259499ANTONIO CARLOS NASCIMENTO DOS                       
0000001205190920221108I012395371450ADAILTON VASCONCELOS ARAUJO                         
0000001215190920221108I012398476652FERNANDO DOS SANTOS FRANCA                          
0000001225190920221108I012398509801RENIVALDO QUEIROZ NASCIMENTO                        
0000001235190920221108I012398513051MAURICIO DE JESUS SOARES                            
0000001245190920221108I012404757220EDVALDO DOS SANTOS                                  
0000001255190920221108I012404767838LUIS VALDICK ESTRELA ARAUJO                         
0000001265190920221108I012404798903NILTON MIRANDA DE JESUS                             
0000001275190920221108I012412954137JOSE CRISPIM DOS SANTOS BARRET                      
0000001285190920221108I012412966755ANTONIO ARIOSVALDO MARTINS PEI                      
0000001295190920221108I012417355207PAULO FREITAS DOS ANJOS                             
0000001305190920221108I012419466707GILMAR DO NASCIMENTO                                
0000001315190920221108I012421467243OVIDIO VALENTIM DE JESUS FILHO                      
0000001325190920221108I012421481556JOSE CARLOS PEREIRA DOS SANTOS                      
0000001335190920221108I012424336425MARCOS LUIZ CARDOSO DE ALMEIDA                      
0000001345190920221108I012425873939FRANCISCO DA SILVA MIRANDA FIL                      
0000001355190920221108I012429798575ADEMIR DA SILVA                                     
0000001365190920221108I012429890390EDMILSON DOS SANTOS                                 
0000001375190920221108I012429964815GILDASIO DE SOUZA SANTOS                            
0000001385190920221108I012429993149MOISES SANTOS ARAUJO                                
0000001395190920221108I012430037140HILARIO SILVA CONCEICAO                             
0000001405190920221108I012430038325JORGE RAMOS DE ASSIS                                
0000001415190920221108I012430108854ROSIVALDO DE JESUS DOS SANTOS                       
0000001425190920221108I012430108889CARLOS ANTONIO DOS SANTOS                           
0000001435190920221108I012430110549ADENILSON DE SOUZA BRANDAO                          
0000001445190920221108I012433553026DULCIVAL DE JESUS GONZAGA                           
0000001455190920221108I012433564699EDSON RIOS DA SILVA                                 
0000001465190920221108I012433645435ANTONIO CARLOS DOS SANTOS                           
0000001475190920221108I012435155923JOSE CARLOS DOS SANTOS                              
0000001485190920221108I012435165295ELENILTON FRANCISCO FERREIRA                        
0000001495190920221108I012441565836NELSON JOSE DOS SANTOS                              
0000001505190920221108I012445918369MACIEL DA SILVA FERRAZ                              
0000001515190920221108I012445987840ALFREDO FERREIRA DOS SANTOS                         
0000001525190920221108I012445998907ANTONIO MOREIRA GALDINO                             
0000001535190920221108I012445999229DERIVALDO JESUS DE CARVALHO                         
0000001545190920221108I012447936801NATA ALVES DE ASSIS                                 
0000001555190920221108I012449397851EDIMILTON SOUZA SANTOS                              
0000001565190920221108I012449410084MARIO AUGUSTO MENEZES DA SILVA                      
0000001575190920221108I012449410173ADAILTON GONCALVES DOS SANTOS                       
0000001585190920221108I012449412893AGNALDO JURITI BISPO DOS SANTO                      
0000001595190920221108I012449465946ESMERALDO JOAO DA SILVA                             
0000001605190920221108I012449470869ARNALDO DA SILVA OLIVEIRA                           
0000001615190920221108I012449470885JOSE CARLOS DOS SANTOS                              
0000001625190920221108I012449487524IRIVALDO MESQUITA                                   
0000001635190920221108I012449564057VALMIR MELO DE BRITO                                
0000001645190920221108I012453828241RAIMUNDO SANTOS CEU                                 
0000001655190920221108I012453921713EDVALDO CONCEICAO DE SOUZA                          
0000001665190920221108I012453923481JOSE WAU MOREIRA DE SA                              
0000001675190920221108I012453923953ROQUE JACKSON ALMEIDA DE OLIVE                      
0000001685190920221108I012455745661EDSON CLEMENTE DE JESUS OLIVEI                      
0000001695190920221108I012455834400ERLON VALENTIN PORTELA SANTOS                       
0000001705190920221108I012458994778JOSIAS DE SOUSA PEREIRA                             
0000001715190920221108I012459004429OLIVAL MUNIZ VELOSO JUNIOR                          
0000001725190920221108I012459004445ROQUE JESUS DE ALCANTARA                            
0000001735190920221108I012459038560WILSON RODRIGUES INVENCAO                           
0000001745190920221108I012459040328JOSE JIVANILDO LIMA DE OLIVEIR                      
0000001755190920221108I012459040662ELIEZIO ARAUJO FREIRE                               
0000001765190920221108I012459041618PEDRO BARBOSA DA SILVA NETO                         
0000001775190920221108I012459044102JOSE VALERIANO DOS SANTOS SOUS                      
0000001785190920221108I012460798301EDSON DOS SANTOS SANTIAGO                           
0000001795190920221108I012461513734ROSANA PINTO SANTOS                                 
0000001805190920221108I012462502515JOSE ELIOSVALDO FREITAS COSTA                       
0000001815190920221108I012466609187CARLOS GERALDO DOREA LIMA                           
0000001825190920221108I012469375179GENIVAL BOMFIM CONCEICAO                            
0000001835190920221108I012475043360FRANCISCO GARCIA DO NASCIMENTO                      
0000001845190920221108I012475173140DANIEL DA CONCEICAO COUTINHO                        
0000001855190920221108I012475173949GILSON DOS SANTOS                                   
0000001865190920221108I012475177537CARLOS EDUARDO DE SOUZA SANTAN                      
0000001875190920221108I012475179661EDVALDO DE JESUS                                    
0000001885190920221108I012475183642CLAUDIO MIRANDA DE SOUZA                            
0000001895190920221108I012475183804ROSENILDO ALVES PIRES                               
0000001905190920221108I012475184053ADILSON ARAUJO BISPO                                
0000001915190920221108I012475187729LUCIANO GOMES DA SILVA                              
0000001925190920221108I012480350861WELLINGTON ALVES DOS SANTOS                         
0000001935190920221108I012481947047MARCELO LUIS PIRES DOS SANTOS                       
0000001945190920221108I012482953261EDIMILSON PEREIRA DE SOUZA                          
0000001955190920221108I012482963631EVANDRO DE JESUS                                    
0000001965190920221108I012482969893ROQUE FLAVIO OLIVEIRA FERREIRA                      
0000001975190920221108I012487394058SIOMAR SA DO AMOR DIVINO                            
0000001985190920221108I012489328893JOAO DA MACENIO FERREIRA DOS S                      
0000001995190920221108I012489335997LUIZ ORLANDO DOS SANTOS                             
0000002005190920221108I012496658631ELIZABETH HOLANDA DE OLIVEIRA                       
0000002015190920221108I012496677083MARCIO SANTOS RIBEIRO                               
0000002025190920221108I012504643456SIRLENE ROSA SANTOS                                 
0000002035190920221108I012504770571JONAS CONCEICAO DOS SANTOS                          
0000002045190920221108I012504814196REGINALDO DOS SANTOS                                
0000002055190920221108I012504843595LUIS CARLOS SILVA SANTOS                            
0000002065190920221108I012510786034IDEILSON CARLOS DA SILVA SANTO                      
0000002075190920221108I012510837267JAIME BATISTA DAS VIRGENS BISP                      
0000002085190920221108I012511401950ZENILDO ALEXANDRE DE OLIVEIRA                       
0000002095190920221108I012511763585OSVALDO FERREIRA                                    
0000002105190920221108I012513569360JOAO GERALDO DA SILVA JUNIOR                        
0000002115190920221108I012513653612ANTONIO CARLOS CONCEICAO DOS S                      
0000002125190920221108I012513654821FRANCISCO DAS CHAGAS MELO DO N                      
0000002135190920221108I012515364200JUSCELINO DOS SANTOS                                
0000002145190920221108I012518215060GEORGE ANTONIO DE JESUS BARBOS                      
0000002155190920221108I012518219791NIVALDO FRANCISCO DOS SANTOS                        
0000002165190920221108I012518265866RAFAEL COSTA SIMOES                                 
0000002175190920221108I012526219495ELSON LUIZ SILVA DE MATOS                           
0000002185190920221108I012529752046FRANCISCO NASCIMENTO PEREIRA                        
0000002195190920221108I012531986571MARCOS TONI VASCONCELOS PEREIR                      
0000002205190920221108I012533320252ROSENILDO BARBOSA MUNIZ                             
0000002215190920221108I012533410634ADEMILTON DO NASCIMENTO LIMA                        
0000002225190920221108I012533432972JAIZINHO ALVES DE SOUZA                             
0000002235190920221108I012533565468LOURINALDO BATISTA DOS SANTOS                       
0000002245190920221108I012533565840ROGERIO GONCALVES DOS REIS                          
0000002255190920221108I012533566626UBIRATAN JESUS DOS SANTOS                           
0000002265190920221108I012533568343ADENILTON CARMO DOS SANTOS                          
0000002275190920221108I012533571417JAIME GONCALVES DE SOUZA FILHO                      
0000002285190920221108I012533753191ALEXANDRO DE SOUZA GONZAGA SAN                      
0000002295190920221108I012533799752UBIRAJARA DOS SANTOS FREITAS                        
0000002305190920221108I012533819788JOSAFA COUTINHO DA SILVA                            
0000002315190920221108I012533997104JAKSON ALEXANDRINO DE JESUS                         
0000002325190920221108I012534124163ROSENTINO DA SILVA JUNIOR                           
0000002335190920221108I012534212216JOILSON FERREIRA SANTOS                             
0000002345190920221108I012534254776URBANO CARVALHO DE FREITAS NET                      
0000002355190920221108I012534400810ERMESON FERREIRA DO SANTO                           
0000002365190920221108I012545108865JAIR SANTANA MOREIRA                                
0000002375190920221108I012545108881JAILTON DE JESUS PEREIRA                            
0000002385190920221108I012545111254JOSE REIS DE JESUS DOS SANTOS                       
0000002395190920221108I012545112269ARIOSVALDO DE JESUS                                 
0000002405190920221108I012545113397CAMILO RODRIGUES NOVAIS                             
0000002415190920221108I012545113974ANTONIO ROBERTO MARQUES CARVAL                      
0000002425190920221108I012545656501CARLOS DUARTE DE SANTANA                            
0000002435190920221108I012545671128MARCOS FRANCISCO DA SILVA                           
0000002445190920221108I012547143196JOSE EDMILSON LIMA DE OLIVEIRA                      
0000002455190920221108I012551638161MANUEL DA CONCEICAO DA SILVA F                      
0000002465190920221108I012556092043ANTONIO MIRANDA                                     
0000002475190920221108I012556669081CLAUDIO SANTANA DA SILVA                            
0000002485190920221108I012557422063SULENIO CONCEICAIO MUNIZ                            
0000002495190920221108I012557464068REGINALDO FERREIRA SIMOES                           
0000002505190920221108I012557806015ANTONIO CARLOS CARDIAL FILHO                        
0000002515190920221108I012557826075JOSE CARLOS DOS SANTOS                              
0000002525190920221108I012558799071JAILSON PASSARINHO DA SILVA                         
0000002535190920221108I012559361053MERIELLE CUNHA DIAS                                 
0000002545190920221108I012559492042DIVAELSON DIAS MOURA                                
0000002555190920221108I012560110018JAILMO PEREIRA BACELAR                              
0000002565190920221108I012581506069GENARIO DOS SANTOS SENA                             
0000002575190920221108I012582110819FERNANDO DA SILVA OLIVEIRA                          
0000002585190920221108I012583571046FAUSTINO FERREIRA DOS SANTOS F                      
0000002595190920221108I012584343063ORLANDO RODRIGUES INVENCAO                          
0000002605190920221108I012584433836SAMUEL DA SILVA SILVESTRE                           
0000002615190920221108I012584485968IGOR SANTOS DA ROCHA                                
0000002625190920221108I012584774803CLEITON SANTOS DA SILVA                             
0000002635190920221108I012585234055RENILSON MOREIRA DOS SANTOS                         
0000002645190920221108I012585368078VALTER CARMO LOPES                                  
0000002655190920221108I012586258055CRISTIANO SANTOS DE SANTANA                         
0000002665190920221108I012586538953SAMUEL ANTONIO MATIAS PIRES                         
0000002675190920221108I012586859075LUCIVANDO BATISTA                                   
0000002685190920221108I012588041053ADILSON BARROSO DOS SANTOS                          
0000002695190920221108I012589535076ANTONIO DE JESUS RIBEIRO                            
0000002705190920221108I012589744058DOMINGOS DE JESUS SANTANA JUNI                      
0000002715190920221108I012590237040IDIVALDO DOS SANTOS BORGES                          
0000002725190920221108I012592174062GENIVALDO DE JESUS ALMEIDA                          
0000002735190920221108I012592327055JOSEMAR ANDRADE DOS SANTOS                          
0000002745190920221108I012593025052RENIVALDO SOARES DOS SANTOS                         
0000002755190920221108I012593420059ROGERIO DA SILVA SANTOS                             
0000002765190920221108I012594689043JOAO SANDRO DANTAS                                  
0000002775190920221108I012594939082CLAUDINO SANTOS OLIVEIRA                            
0000002785190920221108I012595593082ADILSON JESUS DE CARVALHO                           
0000002795190920221108I012597622063LINSMAR FERREIRA COSTA                              
0000002805190920221108I012597675086REINALDO CONCEICAO DA SILVA                         
0000002815190920221108I012603005075ADEMIR DE LIMA SANTOS SOARES                        
0000002825190920221108I012603707975SERGIO CRUZ DA SILVA                                
0000002835190920221108I012603770057ERIVALDO DOS SANTOS CUNHA                           
0000002845190920221108I012603800061LUCIANO DA SILVA CORREIA                            
0000002855190920221108I012604210047ADEMIR DA PAIXAO SANTOS                             
0000002865190920221108I012604356084ALESSANDRO MUNIZ DOS SANTOS                         
0000002875190920221108I012604642052IVAN COUTINHO DOS SANTOS                            
0000002885190920221108I012606598050AILTON BARBOSA DOS SANTOS                           
0000002895190920221108I012606947055LAURENCI PAULO DOS SANTOS                           
0000002905190920221108I012607598046SERGIO SANTOS DA SILVA                              
0000002915190920221108I012607654078WELLINGTON DE ARAUJO ALMEIDA                        
0000002925190920221108I012607787051RONALDO DOS SANTOS LINS                             
0000002935190920221108I012608758063ANTONIO LIMA DOS SANTOS                             
0000002945190920221108I012608928058JOABE FERREIRA DA SILVA                             
0000002955190920221108I012608965085RENAILDO TAVARES SANTANA                            
0000002965190920221108I012609408058EDILTON SANTOS DOS SANTOS                           
0000002975190920221108I012610201070EDIMILSON DE BRITO BRANDAO                          
0000002985190920221108I012611633063UBIRACI DOS SANTOS COUTINHO                         
0000002995190920221108I012612954041JOERBSON MARTINS DA SILVA                           
0000003005190920221108I012612971078ADAILTON DE MATOS ROQUE                             
0000003015190920221108I012614470041NUBIA SANTANA SOUSA                                 
0000003025190920221108I012614789080MOISES ALVES FERREIRA                               
0000003035190920221108I012614981062ROSIVAL RAIMUNDO DOS SANTOS                         
0000003045190920221108I012615313047GENIVALDO DA SILVA DOS SANTOS                       
0000003055190920221108I012615805136ADILTON JESUS DE CARVALHO                           
0000003065190920221108I012615939078JAILSON DE JESUS PEREIRA                            
0000003075190920221108I012616127085ADILTON QUEIROZ DOS SANTOS                          
0000003085190920221108I012616780064ELBERT DE JESUS DE CARVALHO                         
0000003095190920221108I012616852073GILMAR ALVES RIBEIRO                                
0000003105190920221108I012617390073JOSE ROBERTO ALVES DOS SANTOS                       
0000003115190920221108I012617450564JOAO LIMA DE SOUZA                                  
0000003125190920221108I012618715073VALMIR COUTINHO DOS SANTOS                          
0000003135190920221108I012618996056GENIVALDO ALEXANDRINO DE JESUS                      
0000003145190920221108I012619208078JOSE CARLOS BERTOLINA DA SILVA                      
0000003155190920221108I012619304085LUIZ CLAUDIO DA TRINDADE                            
0000003165190920221108I012619476064MANOELITO RAMOS BISPO                               
0000003175190920221108I012620305898JOSELINO DOS SANTOS                                 
0000003185190920221108I012620416088ELIO DE JESUS DOS SANTOS                            
0000003195190920221108I012620601071EDSON SANTANA REIS                                  
0000003205190920221108I012620637068JOSE MARCIO JUCA DE ARAUJO                          
0000003215190920221108I012620912077JOSE MARIO SILVA MOTA                               
0000003225190920221108I012621143042EDVANILDO OLIVEIRA DA SILVA                         
0000003235190920221108I012622173050DARCY DE OLIVEIRA LIMA                              
0000003245190920221108I012622280086CARLOS ALBERTO SANTOS DE SOUZA                      
0000003255190920221108I012625545048CLAUDIO JOSE BRITO                                  
0000003265190920221108I012627086059MARCIO SOARES DA SILVA                              
0000003275190920221108I012627783051ANTONIO SERGIO DAS MERCES SANT                      
0000003285190920221108I012628201072CLAUDIO JORGE DA CONCEICAO SAN                      
0000003295190920221108I012629186085ROMILSON GOMES DE SANTANA                           
0000003305190920221108I012629930051RONIVALDO FIUZA DO CARMO                            
0000003315190920221108I012630234071RUBINEI PEREIRA DA CRUZ                             
0000003325190920221108I012630496041HERNANDE GOMES DOS SANTOS                           
0000003335190920221108I012630696075JOSE ELIAS ALVES DOS SANTOS JU                      
0000003345190920221108I012630707042JOSE ROSALVO DOS SANTOS                             
0000003355190920221108I012631832088JOSE ROBERTO DOS SANTOS                             
0000003365190920221108I012632167061GIVANILDO BOMFIM DO NASCIMENTO                      
0000003375190920221108I012632774049JANUILES DOS SANTOS FERREIRA                        
0000003385190920221108I012633595407JOSE ROBERTO SOARES LIMA                            
0000003395190920221108I012633798073ALAN DE MEDEIROS SANTOS                             
0000003405190920221108I012634339072GENILSON DOS SANTOS                                 
0000003415190920221108I012634755041JOSE RENATO LIMA DE SOUZA                           
0000003425190920221108I012634909073GILSON FERNANDES DE SOUZA                           
0000003435190920221108I012637529077MARCOS DA SILVA SOUZA                               
0000003445190920221108I012638015042RAILSON DA CRUZ                                     
0000003455190920221108I012639449070JAIR RAMOS DA SILVA                                 
0000003465190920221108I012639573073RICARDO SOUZA DOS SANTOS                            
0000003475190920221108I012641360065JEAN SILVA PAIXAO                                   
0000003485190920221108I012646219050CARLOS CONCEICAO SILVA                              
0000003495190920221108I012649092051FLAVIO GOMES DA PALMA                               
0000003505190920221108I012649117089ENIESON OLIVEIRA DOS SANTOS                         
0000003515190920221108I012650353068VALTER JOSE DOS SANTOS SANTANA                      
0000003525190920221108I012652148062VALMIR TAVARES DE LIMA                              
0000003535190920221108I012652166044FLAVIO MAURICIO DOS SANTOS                          
0000003545190920221108I012652726066ADEMARIO SOUZA DA PAIXAO                            
0000003555190920221108I012652731078EDILBERTO SOUZA SANTOS                              
0000003565190920221108I012652945086ANTONIO MARCOS SANTOS SILVA                         
0000003575190920221108I012654974059EDIMILSON DE JESUS COSTA                            
0000003585190920221108I012656531073JOSENILSON FRANCISCO DOS SANTO                      
0000003595190920221108I012656598089CLAUDIO DOS SANTOS ALVES                            
0000003605190920221108I012656661066LEONCIO DE CARVALHO MORAES                          
0000003615190920221108I012656668060ROBSON DOS SANTOS FERREIRA                          
0000003625190920221108I012657183761LAERCIO ALVES DO NASCIMENTO                         
0000003635190920221108I012658523078JOSE ANTONIO DA SILVA                               
0000003645190920221108I012659006689CLEIDSON SANTOS NERY                                
0000003655190920221108I012659371069EDVONALDO OLIVEIRA DA SILVA                         
0000003665190920221108I012660312054REINALDO AZEVEDO DA SILVA                           
0000003675190920221108I012660644073ROMEVALDO DOS SANTOS DE SANTAN                      
0000003685190920221108I012660996042ANTONIO MARCOS SANTOS DE SOUZA                      
0000003695190920221108I012661627059JUDSON CRUZ SANTOS                                  
0000003705190920221108I012661840070ALEX SANDRO BASTOS DE SOUZA                         
0000003715190920221108I012663295045JOAO CARLOS BEZERRA DO NASCIME                      
0000003725190920221108I012664527071GENIVALDO SANTANA DOS SANTOS                        
0000003735190920221108I012667652071EVERSON BOMFIM DE AZEVEDO                           
0000003745190920221108I012668423084DENILSON LEANDRO SANTOS DA SIL                      
0000003755190920221108I012669464086SIDICLEI DOS SANTOS CIMAS                           
0000003765190920221108I012670137069ALEXSANDRA GONCALVES DE MIRAND                      
0000003775190920221108I012670548042CARLOS ANDRE DE JESUS DAS VIRG                      
0000003785190920221108I012672188663JOSUE ZACARIAS SANTOS ALVES                         
0000003795190920221108I012672534049JOSE NILTON PEREIRA DE AZEVEDO                      
0000003805190920221108I012672835073EDVALDO DOS SANTOS DA SILVA                         
0000003815190920221108I012674219051JOSE RAIMUNDO DE FREITAS SANTO                      
0000003825190920221108I012674288061CLEDUILSON DOS SANTOS DE SOUSA                      
0000003835190920221108I012675112048JOSE MIRAO CORDEIRO NETO                            
0000003845190920221108I012675465056ISAIAS DOS SANTOS ROCHA                             
0000003855190920221108I012675746055ALEX DOS SANTOS DA COSTA                            
0000003865190920221108I012675873049ADILSON DOS SANTOS                                  
0000003875190920221108I012678161074LUIZ CARLOS DOS SANTOS                              
0000003885190920221108I012678987088ERLON SANTANA DOS SANTOS                            
0000003895190920221108I012680089695EDVAM DE SANTANA SANTOS                             
0000003905190920221108I012680621079LUIZ CARLOS SAMPAIO SOUZA                           
0000003915190920221108I012680841044WAGNER SANTOS NEPOMUCENO                            
0000003925190920221108I012681928070JOSE DOMINGOS BISPO DE CARVALH                      
0000003935190920221108I012682028073JOAO VIEIRA DE ANDRADE FILHO                        
0000003945190920221108I012682183087EVALDO DOS SANTOS PEREIRA                           
0000003955190920221108I012683125080DIANE DE OLIVEIRA SANTOS MOREI                      
0000003965190920221108I012683183072FABIO VIEIRA DOS ANJOS                              
0000003975190920221108I012683538059JOSEMAR DOS SANTOS                                  
0000003985190920221108I012683710765ERICK FERNANDES DE SOUZA                            
0000003995190920221108I012685025075MARCOS JOSE VIEIRA DA SILVA                         
0000004005190920221108I012686570042ALEX RODRIGUES LOPES                                
0000004015190920221108I012686583063JAILSON FARIAS DOS SANTOS                           
0000004025190920221108I012686709040HELIO BARBOSA OLIVEIRA FILHO                        
0000004035190920221108I012687231055JOSEILTON ALVES REIS                                
0000004045190920221108I012689944040DENILSON ALVES REIS                                 
0000004055190920221108I012689959072JUCIVALDO CONCEICAO DA CRUZ                         
0000004065190920221108I012689995087ERALDO NASCIMENTO DA ROCHA                          
0000004075190920221108I012690348057JOSUEL ANDRADE DA SILVA                             
0000004085190920221108I012690455066ADEMILTON DOS SANTOS TAVARES                        
0000004095190920221108I012690896054MARCOS DE SOUZA NUNES                               
0000004105190920221108I012691268049MARCIO SILVA SANTOS                                 
0000004115190920221108I012691857052PAULO ENRIQUE SANTANA DA SILVA                      
0000004125190920221108I012692001070FABIO ALMEIDA SANTOS CRUZ                           
0000004135190920221108I012692140690FABIO DE JESUS ARGOLO                               
0000004145190920221108I012692724048SERGIO DE ASSIS DA COSTA                            
0000004155190920221108I012693301043ALEX SANDRO GONCALVES LIMA ARA                      
0000004165190920221108I012693351083ALDEBRANDO ANGELO COSTA SODRE                       
0000004175190920221108I012693692085CLAUDIO TORRES DA SILVA                             
0000004185190920221108I012694421069SILVAN SARAIVA DOS SANTOS                           
0000004195190920221108I012695224046ROBSON BATISTA DOS SANTOS                           
0000004205190920221108I012695362937GERALDO SILVA DOS SANTOS                            
0000004215190920221108I012696041085JOAO CARLOS GOMES DA SILVA                          
0000004225190920221108I012696181081FABIO DOS SANTOS SANTANA                            
0000004235190920221108I012696338088JAMILSON ARRUDA DA SILVA                            
0000004245190920221108I012696446077JOSIVAL DOS SANTOS FERREIRA                         
0000004255190920221108I012696543080FABIO DE OLIVEIRA DA SILVA                          
0000004265190920221108I012697631048PAULO LUIS DA SILVA                                 
0000004275190920221108I012698558042JOSEILTON SOUSA DOS ANJOS                           
0000004285190920221108I012698584078FABIO PEREIRA DA SILVA                              
0000004295190920221108I012699425062ZENILTON DAMASCENO DE SOUZA                         
0000004305190920221108I012700066059MANOEL DANTAS BARBOSA                               
0000004315190920221108I012700390042HELIO BANDEIRA DA SILVA                             
0000004325190920221108I012700509082SIDNEI SANTIAGO DOS SANTOS                          
0000004335190920221108I012702624083ALEX SANDRO RODRIGUES DOS SANT                      
0000004345190920221108I012702633066JOSUE MARTINS SILVA                                 
0000004355190920221108I012704627047ANTONIO MARCOS SANTOS E SANTOS                      
0000004365190920221108I012704936082NILSON ALVES LIMA                                   
0000004375190920221108I012705065050JOSE EDINEI SANTOS DE JESUS                         
0000004385190920221108I012705120043ALAN NUNES DA SILVA                                 
0000004395190920221108I012705727053EVERALDO NASCIMENTO NONATO MED                      
0000004405190920221108I012706457076GIVANILDO SANTOS DA SILVA                           
0000004415190920221108I012707210074UELLINGTON ANTONIO RIBEIRO MEN                      
0000004425190920221108I012708403089PERINILSON LIMA COSTA                               
0000004435190920221108I012709622086ALINDOLFO DE JESUS BARBOSA                          
0000004445190920221108I012710027048JOAO SILVERIO DE JESUS                              
0000004455190920221108I012710318085REINALDO DE ALMEIDA SANTANA                         
0000004465190920221108I012711155082RIVALDO MESSIAS BRITO                               
0000004475190920221108I012711205055JOSEVALDO FERREIRA SANTANA                          
0000004485190920221108I012711638083ROBSON FERNANDES DOS SANTOS                         
0000004495190920221108I012712339071DERIVALDO REIS GABRIEL                              
0000004505190920221108I012712944064ROBSON DE FREITAS BARBOSA                           
0000004515190920221108I012713464058RONALDO DE JESUS SANTOS                             
0000004525190920221108I012713869074UELTON FABIO PEREIRA LOPES                          
0000004535190920221108I012714533045FREDSON ALVES DE SOUZA                              
0000004545190920221108I012714567063VALDEMIR CONCEICAO LUZ                              
0000004555190920221108I012714691813LUIS CARLOS SILVA MATOS                             
0000004565190920221108I012714771078ELISANDRO DA SILVA DE JESUS                         
0000004575190920221108I012715139065JONATHAS FRANCISCO DOS SANTOS                       
0000004585190920221108I012715629070SIDNEY RODRIGUES DE SANTANA                         
0000004595190920221108I012715789043MARCOS PAULO DE SOUZA SANTIAGO                      
0000004605190920221108I012716125076SATURNINO BISPO DE CARVALHO                         
0000004615190920221108I012716672050JILMAR ALMEIDA DO NASCIMENTO                        
0000004625190920221108I012716875075FABIO LUIS LIMA DOS SANTOS                          
0000004635190920221108I012717093062DOUGLAS LAPA DE JESUS                               
0000004645190920221108I012717672062AURELINO ALVES GOMES                                
0000004655190920221108I012718546044CLEDISON SOUZA SANTOS                               
0000004665190920221108I012719479057GILTON LEANDRO DA SILVA                             
0000004675190920221108I012719968074ADACILDO DOS SANTOS OLIVEIRA                        
0000004685190920221108I012720012078GILDASIO DA SILVA SOUZA                             
0000004695190920221108I012720361056EDSON DA CONCEICAO COUTINHO                         
0000004705190920221108I012720835058LUIZ CLAUDIO SOUZA DOS SANTOS                       
0000004715190920221108I012721138067ALEX PEREIRA DE ALMEIDA                             
0000004725190920221108I012722245053JONAS SANTOS GOMES                                  
0000004735190920221108I012722508070CARLOS SANTANA DOS SANTOS                           
0000004745190920221108I012722880042FABIANO EMIDIO DE LIMA                              
0000004755190920221108I012723188150FABIO DOS ANJOS SANTOS                              
0000004765190920221108I012723932089EDIVAN DOS SANTOS DE SOUZA                          
0000004775190920221108I012724998075ALMERINDO TEODOZO DOS SANTOS                        
0000004785190920221108I012725055050ADEILTON MIGUEL DE BRITO                            
0000004795190920221108I012725339040ROMEL DANTAS SANTANA                                
0000004805190920221108I012725645052LEANDRO CARLOS DOS SANTOS FREI                      
0000004815190920221108I012725968056DAMIAO SANTOS SANTANA                               
0000004825190920221108I012726160060AGNALDO MARINHO DE JESUS                            
0000004835190920221108I012727224089EDSON SANTANA                                       
0000004845190920221108I012727706040LEONARDO DOS SANTOS CAMPOS                          
0000004855190920221108I012728168085MAILSON SOUZA NUNES                                 
0000004865190920221108I012729535049ADENILSON NEPONUCENO DA CRUZ                        
0000004875190920221108I012731591074NILTON CESAR CERQUEIRA MOREIRA                      
0000004885190920221108I012732549071SAMUEL SANTOS FERREIRA                              
0000004895190920221108I012733474040MARCOS PAULO DIAS SOUZA                             
0000004905190920221108I012733847068ROBSON CABOCLO DA SILVA                             
0000004915190920221108I012734917078JOSEMIR DA SILVA PEREIRA                            
0000004925190920221108I012735261079NAILSON SANTOS DA SILVA                             
0000004935190920221108I012735908080UELITON ALMEIDA CRUZ                                
0000004945190920221108I012736747080SIDNEI SOUSA DOS SANTOS                             
0000004955190920221108I012737570079REGINALDO DA SILVA COSTA                            
0000004965190920221108I012737779075JIVANGLEY ARAUJO DE SANTANA                         
0000004975190920221108I012737872075ROBERTO FERNANDES DE JESUS                          
0000004985190920221108I012738066056ARENILDO DA SILVA SANTOS                            
0000004995190920221108I012739858045DIEGO SAMPAIO PASSOS                                
0000005005190920221108I012740577089MAURICIO PINTO DOS REIS                             
0000005015190920221108I012740620049EDILSON DOS SANTOS BATISTA                          
0000005025190920221108I012741262073MARCELO DOS SANTOS                                  
0000005035190920221108I012741727041JOSE ANASTACIO DE JESUS CRUZ                        
0000005045190920221108I012742182065ERIVALDO DE JESUS DE LIMA                           
0000005055190920221108I012743830052ALEXANDRO SANTOS DE JESUS                           
0000005065190920221108I012745057067MARINALDO FELIX CABOCLO                             
0000005075190920221108I012745758065EDVAN DE SOUZA SILVA                                
0000005085190920221108I012746171041ROMENIL SEBASTIAO DE AZEVEDO F                      
0000005095190920221108I012746336040JEAN CRISPIM SILVA DE MATOS                         
0000005105190920221108I012746758069CLEONILDO SANTANA DAS VIRGENS                       
0000005115190920221108I012746863121ERINALDO DE JESUS DE LIMA                           
0000005125190920221108I012748020083IDENESON DOS SANTOS SILVA                           
0000005135190920221108I012748434074MARCOS DA SILVA SOUZA                               
0000005145190920221108I012748809124MAMEDIO DA SILVA JUNIOR                             
0000005155190920221108I012749227048EDMILSON DE JESUS GOES                              
0000005165190920221108I012749241040UELISSON DE BRITO SOUZA                             
0000005175190920221108I012749391069ANDERSON GOMES DOS SANTOS                           
0000005185190920221108I012749465089RICARDO BATISTA FRAZAO                              
0000005195190920221108I012750160083ACACIO RODRIGUES DE LIMA                            
0000005205190920221108I012751711067ALAN REIS DOS SANTOS                                
0000005215190920221108I012751723138JOSE CARLOS DOS REIS                                
0000005225190920221108I012752078058SIDNEI GUEDES DOS SANTOS                            
0000005235190920221108I012752137070CRISPIM SILVA DE SENA                               
0000005245190920221108I012752554089JOSE EVANDRO CARMO DOS SANTOS                       
0000005255190920221108I012752844079PAULO ROBERTO TAVARES ALVES                         
0000005265190920221108I012753405079EDINALDO DE FARIAS PASSOS                           
0000005275190920221108I012753801055RONALDO RAMOS DA ANUNCIACAO                         
0000005285190920221108I012754388054LUCIANO DOS SANTOS VIANA                            
0000005295190920221108I012754628063FABIO ALVES BARRADAS                                
0000005305190920221108I012754649087AYRTON FERNANDO SOUZA DOS SANT                      
0000005315190920221108I012755079047ADIMILSON SANTANA DE JESUS                          
0000005325190920221108I012755366070UILSON DE CARVALHO SANTOS                           
0000005335190920221108I012756643760JOSE ADILSON SANTOS SOUSA                           
0000005345190920221108I012756669042DANIEL PEREIRA CAETANO                              
0000005355190920221108I012756774180ADNAN REIS SANTOS                                   
0000005365190920221108I012756963854EVANDRO OLIVEIRA LIMA                               
0000005375190920221108I012757074042IVAN NAZARE DOS SANTOS                              
0000005385190920221108I012757631073RICARDO DA PURIFICACAO DOS SAN                      
0000005395190920221108I012759444041CHARLES DE JESUS LEITE                              
0000005405190920221108I012759782060PEDRO LEONARDO BRITO SANTOS                         
0000005415190920221108I012760939075JOSUE FAGUNDES MENDES                               
0000005425190920221108I012761035080ALEX NEI CONCEICAO PARAGUASSU                       
0000005435190920221108I012761387084EDENILTON SANTOS DE SANTANA                         
0000005445190920221108I012761929057JULIO CEZAR DE ARAUJO DE SENA                       
0000005455190920221108I012763618083CARLOS ALBERTO MARTINS DOS SAN                      
0000005465190920221108I012764113066JOSENILSON DA SILVA SANTOS                          
0000005475190920221108I012764387077MARCOS VINICIUS RODRIGUES PALM                      
0000005485190920221108I012764795086REINIVALDO DA SILVA SANTANA                         
0000005495190920221108I012765605086MOACIRVALDO FREITAS DA SILVA                        
0000005505190920221108I012765814076LEANDRO SOUZA DOS SANTOS                            
0000005515190920221108I012766238044JEILSON BARBOSA GOIS                                
0000005525190920221108I012766447085TELVAN DE OLIVEIRA NOBRE                            
0000005535190920221108I012768176046JOSE SOUZA DOS SANTOS FILHO                         
0000005545190920221108I012768482058MARCOS DA SILVA BARBOSA                             
0000005555190920221108I012769949081EMISAEL DOS SANTOS RODRIGUES                        
0000005565190920221108I012771773076JOILTON SANTOS DE JESUS                             
0000005575190920221108I012775899074ALEX NASCIMENTO DOS SANTOS                          
0000005585190920221108I012775989073PEDRO BISPO                                         
0000005595190920221108I012777457052VIVIANE DOS SANTOS LOPES CAMPO                      
0000005605190920221108I012781810047GUSTAVO SANTOS DE LIMA                              
0000005615190920221108I012781908047MARCUS VENICIUS DA CUNHA SILVA                      
0000005625190920221108I012783462089FABIO DOS SANTOS DE SOUSA                           
0000005635190920221108I012785781076RICARDO DE SANTANA SANTOS                           
0000005645190920221108I012785821086ANTONIO ADAILTON GUEDES PINHEI                      
0000005655190920221108I012788965054ROGERIO BISPO                                       
0000005665190920221108I012789535088SILVIO DE JESUS SILVA                               
0000005675190920221108I012793975054FLORAN SANTOS PAIXAO                                
0000005685190920221108I012799177850EVERALDO DE SOUZA SILVA                             
0000005695190920221108I012800998069AGNALDO SANTOS RIBEIRO                              
0000005705190920221108I012801732054ADELSON PEREIRA DE AMORIM                           
0000005715190920221108I012802354428RAIMUNDO BARROSO FILHO                              
0000005725190920221108I012806691046DIEGO AUGUSTO DE ARAUJO DE SEN                      
0000005735190920221108I012809580075ANDRE ERIC DE ARAUJO FERREIRA                       
0000005745190920221108I012813504043RONALDO PINTO DA SILVA                              
0000005755190920221108I012814787049CLENILSON NUNES PEREIRA                             
0000005765190920221108I012820506048MILTON JOSE SIMAO SANTOS                            
0000005775190920221108I012821528061LUIS CARLOS DO ESPIRITO SANTO                       
0000005785190920221108I012823606086NADIO DA CONCEICAO                                  
0000005795190920221108I012825238084ANDERSON LIMA DE SOUZA                              
0000005805190920221108I012825336086GILSON SANTOS PEREIRA                               
0000005815190920221108I012826298897MARIVALDO PAIXAO DOS SANTOS                         
0000005825190920221108I012827300046ANDRE LUIS SANTOS OLIVEIRA                          
0000005835190920221108I012827735077JEFERSON SANTOS SANTANA                             
0000005845190920221108I012829451076VALDIR GOMES DA SILVA JUNIOR                        
0000005855190920221108I012830015071ALEXILDO SILVA DOS SANTOS                           
0000005865190920221108I012831926043MARCOS BARBOSA DE JESUS                             
0000005875190920221108I012831949051LAECIO SAMPAIO DE ARAGAO                            
0000005885190920221108I012832016059RICARDO MORAIS DOS SANTOS                           
0000005895190920221108I012832425056JONIKLECIO BENICIO DE CARVALHO                      
0000005905190920221108I012832660055JOSE LUIS ALVES DA PAIXAO                           
0000005915190920221108I012835449053ALCILON SANTOS DE MELO                              
0000005925190920221108I012837774075ANDRE MAIA DA SILVA                                 
0000005935190920221108I012838877080JOEL DA SILVA ANDRADE FILHO                         
0000005945190920221108I012840614857JOSE CICERO DO NASCIMENTO                           
0000005955190920221108I012844387057MAICON VIEIRA SILVA                                 
0000005965190920221108I012844856073DANIEL DA SILVEIRA TORRES                           
0000005975190920221108I012846728064LAECIO DA SILVA LOPES                               
0000005985190920221108I012847404076LUIZ ALBERTO SANTOS DA SILVA                        
0000005995190920221108I012853076042DIEGO ANASTACIO GOMES                               
0000006005190920221108I012854996080JOUBERT JESUS SANTOS                                
0000006015190920221108I012857327775CARLOS FABIO DOS SANTOS                             
0000006025190920221108I012858002047ROBERTO SOUZA DOS SANTOS                            
0000006035190920221108I012858111075RODRIGO OLIVEIRA LIMA                               
0000006045190920221108I012860139089UBIRATAN SANTANA DOS SANTOS                         
0000006055190920221108I012864539049LEANDRO BATISTA DO NASCIMENTO                       
0000006065190920221108I012865677070CARLOS AUGUSTO SILVA DE ANDRAD                      
0000006075190920221108I012868223399JEIEL DA SILVA COUTO                                
0000006085190920221108I012869018101JUSCELINO CARNEIRO RIOS                             
0000006095190920221108I012870629070ROBERLITO FERNANDES NEVES                           
0000006105190920221108I012870800047REINALDO OLIVEIRA CARNEIRO                          
0000006115190920221108I012871461041EMERSON DA SILVA SANTOS                             
0000006125190920221108I012872926048EMERSON SANTOS                                      
0000006135190920221108I012878231076ROBERTO SANTOS SILVA                                
0000006145190920221108I012880341169UELITON RODRIGUES DA SILVA                          
0000006155190920221108I012881398059NILSON CRUZ DA SILVA                                
0000006165190920221108I012882661071TIAGO LOPES DO NASCIMENTO                           
0000006175190920221108I012886285767ECLESIO SANTOS MENEZES                              
0000006185190920221108I012887636059JAQUISON CERQUEIRA DOS SANTOS                       
0000006195190920221108I012887698070ACASSIO SANTOS DE SOUZA                             
0000006205190920221108I012890193065EVARISTO ANDRE DE MOURA NETO                        
0000006215190920221108I012890641084GILSON VIEIRA SANTANA                               
0000006225190920221108I012892126071ROBERTO SILVA SOUZA                                 
0000006235190920221108I012893729047JAELSON DE PINHO CARNEIRO                           
0000006245190920221108I012894295067JOSE GILIARD SANTOS DE JESUS                        
0000006255190920221108I012898222072JACSON SOUZA DE BRITO                               
0000006265190920221108I012898914047VALDERSON DE CARVALHO                               
0000006275190920221108I012899422040SEANDRO DOS SANTOS NASCIMENTO                       
0000006285190920221108I012901090070VANDERLEI MARQUES DE CARVALHO                       
0000006295190920221108I012901445057EBSON CLEITON DE SANTANA                            
0000006305190920221108I012901755056ARTUR FARIAS DOS SANTOS                             
0000006315190920221108I012902237083ERENILDO DOS SANTOS SOARES                          
0000006325190920221108I012903203085JOELITO DOS SANTOS SILVA                            
0000006335190920221108I012903665054JILCIMAR SOUZA BATISTA                              
0000006345190920221108I012904177061PEDRO DO AMOR DIVINO JUNIOR                         
0000006355190920221108I012905603048ROGERIO SANTOS DE SOUZA                             
0000006365190920221108I012906690084ADRIANO MOTA DA SILVA                               
0000006375190920221108I012910265074CLEIDSON NUNES PEREIRA                              
0000006385190920221108I012912037052RENILSON LEAL DE SANTANA                            
0000006395190920221108I012913158058THIAGO RAMOS DOS SANTOS SANTAN                      
0000006405190920221108I012913977067PEDRO HENRIQUE BOMFIM DA FRANC                      
0000006415190920221108I012915099067VALDEMIR LIMA RODRIGUES SANTOS                      
0000006425190920221108I012915881067LUIZ FERNANDO SANTOS DA SILVA                       
0000006435190920221108I012917605040JEFFERSON ELOI DE LIRA                              
0000006445190920221108I012917635055RENATO DA COSTA COELHO                              
0000006455190920221108I012918021077ELISANGELA DE JESUS PARAIZO DA                      
0000006465190920221108I012919393040MANOEL LOURIVAL DE OLIVEIRA NE                      
0000006475190920221108I012919397054EMANUEL MESSIAS SANTOS DA SILV                      
0000006485190920221108I012919952074ELIELSON SANTOS DE SOUZA                            
0000006495190920221108I012920237049ADSON CONCEICAO DOS SANTOS                          
0000006505190920221108I012921294607JOAO FERREIRA PALACIO                               
0000006515190920221108I012921564078PAULO CESAR BRANDAO LISBOA                          
0000006525190920221108I012923417064GEORGE FERREIRA SANTOS                              
0000006535190920221108I012923777087GILMARIO BARRETO DOS SANTOS SI                      
0000006545190920221108I012927265064EDINALDO SOUZA SAO PEDRO                            
0000006555190920221108I012934516042LEONARDO SOUZA DOS SANTOS                           
0000006565190920221108I012934638016JOSE LEONALDO DA SILVA CONCEIC                      
0000006575190920221108I012936796069JEFERSON DE JESUS PINHEIRO                          
0000006585190920221108I012938020068AUDEMIR REIS DA CRUZ                                
0000006595190920221108I012938398060JUVENILDO MELO DE JESUS                             
0000006605190920221108I012939850072HUDSON ALVES SANTOS                                 
0000006615190920221108I012941673050RAUL ASSIS DE LIMA NETO                             
0000006625190920221108I012943073050ALAN SOUZA DOS SANTOS                               
0000006635190920221108I012944734042DENIDEIVIDE CALMON DE PASSOS F                      
0000006645190920221108I012945226814CLAUDIA REGINA NASCIMENTO LOIO                      
0000006655190920221108I012945337047PAULO SERGIO DE SOUZA                               
0000006665190920221108I012946490078EVERTON LUIZ DOS SANTOS SALES                       
0000006675190920221108I012947311053DAVID BARBOZA                                       
0000006685190920221108I012951300079JOSE CARLOS SOUZA GOMES                             
0000006695190920221108I012952393046RODRIGO PANDINI SANTOS                              
0000006705190920221108I012952799069JORGE PEREIRA DE DEUS                               
0000006715190920221108I012954948061MARCOS VINICIUS DA MOTA SANTOS                      
0000006725190920221108I012956045042GENIVALDO DA SILVA TRABUCO                          
0000006735190920221108I012965568087SANDERSON PORTO DOS SANTOS                          
0000006745190920221108I012966345057MARCO ANTONIO TRINDADE DOS SAN                      
0000006755190920221108I012968305052SAULO SEDRAQUE SANTOS BONFIM                        
0000006765190920221108I012968895062SANDOVAL FERNANDES DE SOUZA                         
0000006775190920221108I012969442053ALECIO DE SOUZA OLIVEIRA                            
0000006785190920221108I012970393583MARCIO DA SILVA DOS SANTOS                          
0000006795190920221108I012972399082RENILDO SILVA SANTOS                                
0000006805190920221108I012975271060EVERTON SOLEDADE DOS SANTOS                         
0000006815190920221108I012977123042JAGUARACI BISPO DOS SANTOS NAS                      
0000006825190920221108I012979693083ALEX SANDRO ALVES DA SILVA                          
0000006835190920221108I012980304273CRISTIANO ARAUJO COUTINHO                           
0000006845190920221108I012982018081LEANDRO DOS SANTOS MOTTA                            
0000006855190920221108I012989050088ALLISON RAMON ARAUJO DE SANTAN                      
0000006865190920221108I012989146859VALDIMIRO DO CARMO DA PAIXAO                        
0000006875190920221108I012989566076LUIS ALVES DE OLIVEIRA                              
0000006885190920221108I012992098061ROMULO VINICIUS NASCIMENTO SOU                      
0000006895190920221108I012992992048JORGE NONATO QUEIROZ                                
0000006905190920221108I012994339082FRANCIS FREITAS DE SOUZA                            
0000006915190920221108I012997460079JORGE VALTER DOS SANTOS                             
0000006925190920221108I012998673084GILMARIO FERREIRA DA SILVA                          
0000006935190920221108I013003781064KLEBER MATOS ARAUJO                                 
0000006945190920221108I013004347082JOSE VENANCIO DA SILVA BRITO                        
0000006955190920221108I013009142055HARRISON VALENTIM TAVARES FERR                      
0000006965190920221108I013011349087MUCIO MODESTO MACHADO MATOS                         
0000006975190920221108I013013497067RENAN SILVA MARQUES                                 
0000006985190920221108I013018221051JEOVAN SALES DA CONCEICAO                           
0000006995190920221108I013018745069HELTON SOUZA DOS SANTOS                             
0000007005190920221108I013020911779GERSON SILVA SANTOS                                 
0000007015190920221108I013023195047UILLIAM HENRIQUE CONCEICAO DA                       
0000007025190920221108I013024558054ERIC DE SOUSA SANTOS                                
0000007035190920221108I013031048082ERICKA BANDEIRA FRANCO                              
0000007045190920221108I013031381059ROQUE CARLOS FREITAS COSTA                          
0000007055190920221108I013031758047JOSE MARCIO DA SILVA GOMES                          
0000007065190920221108I013035856078ARAILTON FERREIRA DOS SANTOS                        
0000007075190920221108I013036123813REINALDO DA SILVA GOMES                             
0000007085190920221108I013039316086ADELMO ARAUJO TEIXEIRA                              
0000007095190920221108I013051005044JANISON DOS SANTOS                                  
0000007105190920221108I013053923083UERLLES DE SOUZA SANTOS                             
0000007115190920221108I013064098933LUCIANO DA SILVA GOMES                              
0000007125190920221108I013065239859LUIS CARLOS SANTOS DE SOUZA                         
0000007135190920221108I013072488087FABIAN D OLIVEIRA PORTELA                           
0000007145190920221108I013073989896SILVINO SANTANA DOS SANTOS                          
0000007155190920221108I013075531978LEONARDO SANTOS DA CRUZ                             
0000007165190920221108I013075965978RONALSON DOS SANTOS JUNIOR                          
0000007175190920221108I013089271086JOELSON SANTANA SILVA                               
0000007185190920221108I013091798061GEIVSON BISPO FERREIRA                              
0000007195190920221108I013093069059SILAS MARCEL RIBEIRO DE FIGUEI                      
0000007205190920221108I013094983030MAXUEL SOUZA DOS SANTOS                             
0000007215190920221108I013097923062LEANDRO DOS SANTOS CARNEIRO                         
0000007225190920221108I013101911051ALOISIO DAS MERCES DA SILVA                         
0000007235190920221108I013108153055REUEL DA SILVA COUTO RIOS                           
0000007245190920221108I013108662898VALMIR DOS SANTOS                                   
0000007255190920221108I013111642851VARNEY CORREIA ARAGAO                               
0000007265190920221108I013121248064REGIVALDO SA BARBOSA                                
0000007275190920221108I013122865814ADAILTON DA SILVA LIMA                              
0000007285190920221108I013137878569JONATAS DE SOUZA LIMA                               
0000007295190920221108I013155274823MARCOS VINICIUS SOUZA DE SANTA                      
0000007305190920221108I013158316217NATAN HEBERT DA SILVA DE CARVA                      
0000007315190920221108I013181868530ELIENE DOS SANTOS                                   
0000007325190920221108I013191173934FLAVIO BENICIO DA SILVA SOUZA                       
0000007335190920221108I013215936932BRUNO HARDT                                         
0000007345190920221108I013260764452NEILSON COSTA BOMFIM                                
0000007355190920221108I013266182293CLESSIANO DE FRANCA SANTOS                          
0000007365190920221108I013271395178EROS JHOSEPH FERREIRA TELES                         
0000007375190920221108I013316741452ALEX DE SANTANA DA SILVA                            
0000007385190920221108I013380364273THIAGO DE SOUZA DO NASCIMENTO                       
0000007395190920221108I013393859810ENEAS MORAIS DOS SANTOS OLIVEI                      
0000007405190920221108I013437168451PAULO SOUSA LIMA                                    
0000007415190920221108I013445106419ANTHONY JOAN DOS SANTOS                             
0000007425190920221108I013445389909JOAO VICTOR DOS ANJOS BORGES                        
0000007435190920221108I013462428275CARLOS EDUARDO DANTAS DOS SANT                      
0000007445190920221108I013485444811LUIZ CARLOS PEREIRA LEITE                           
0000007455190920221108I013506327770CRISTIANO DOS SANTOS CARVALHO                       
0000007465190920221108I013522279270JOSENILSON SANTOS DE SOUZA                          
0000007475190920221108I013568152273UELINGTON DA SILVA CONCEICAO                        
0000007485190920221108I013638134252EVERTON LIMA DA SILVA                               
0000007495190920221108I013671890117IGOR DMYTRYK DA CRUZ                                
0000007505190920221108I013675065722VALNEI BISPO DAS NEVES                              
0000007515190920221108I013675191272RAFAEL DE JESUS SANTOS                              
0000007525190920221108I013697603042VINICIUS RAFAEL DA SILVA                            
0000007535190920221108I013704370710LUAN DOS SANTOS DE SANTANA                          
0000007545190920221108I013729988467GUSTAVO FRANCA SANTOS                               
0000007555190920221108I013730786864JOAO VITOR DO ROSARIO DOS SANT                      
0000007565190920221108I013797978277JOSELENE DOS SANTOS                                 
0000007575190920221108I013799637531FILIPE SILVESTRE COSTA                              
0000007585190920221108I013839499274RODRIGO SANTOS DE ALMEIDA                           
0000007595190920221108I013944841270BRUNO DE CARVALHO FRANQUETTO                        
0000007605190920221108I013958248135LEONARDO CIPRIANO DE JESUS                          
0000007615190920221108I014020395922GABRIEL CESAR DE CARVALHO TEIX                      
0000007625190920221108I014081698275MAGNUM BARBOSA DA ROCHA SANTOS                      
0000007635190920221108I014099501279LUAM BISMARCK ALMEIDA QUEIROZ                       
0000007645190920221108I014129282278ROBSON RODRIGUES DOS SANTOS                         
0000007655190920221108I014139537279EMERSON SANTOS DA SILVA                             
0000007665190920221108I014145100278RICARDO MENDES DE ALMEIDA                           
0000007675190920221108I014181985276UESLEY DE SANTANA SOUZA                             
0000007685190920221108I014256716277VIVIANE FRAGA DO ROSARIO                            
0000007695190920221108I014266280293MATHEUS LUIS SILVA MOREIRA                          
0000007705190920221108I014270389040JUAN VINICIUS DOS SANTOS SOARE                      
0000007715190920221108I014274344076LUCCA PITANGUEIRA ANDION                            
0000007725190920221108I014274478706FELIPE MUNIS VELOSO DOS SANTOS                      
0000007735190920221108I014276437675EMANUELA MILA SOUZA DE SA BARR                      
0000007745190920221108I014339252278CLEBER DA SILVA MELO                                
0000007755190920221108I014339360275LUIS CLAUDIO JESUS SANTOS                           
0000007765190920221108I014416507158SILAS ANDRE GOIS PACHECO                            
0000007775190920221108I014428549004ELBERT MENDONCA DOS SANTOS                          
0000007785190920221108I014435616277MARCIO DOS SANTOS                                   
0000007795190920221108I014446223271ADRIANO DA ANUNCIACAO DOS SANT                      
0000007805190920221108I014456481273SERGIO LUIS SANTOS MOURA JUNIO                      
0000007815190920221108I014581085272JADSON LUIZ OLIVEIRA SILVA                          
0000007825190920221108I014590727397MICAEL JONATAS BATISTA DE JESU                      
0000007835190920221108I014591420864RONALDO MERON SANTOS                                
0000007845190920221108I014591549557ERIK JUNIO MENDONCA DOS SANTOS                      
0000007855190920221108I014592356841JOAO VITOR DE JESUS SANTOS                          
0000007865190920221108I014626083273LAURINO DOS SANTOS FERNANDES                        
0000007875190920221108I014703690140VICTOR HUGO FERREIRA DOS SANTO                      
0000007885190920221108I014821062271ADEMILSON CARVALHO DOS SANTOS                       
0000007895190920221108I014847722074IAN DMYTRYK DA CRUZ                                 
0000007905190920221109I014853215278TAINA SILVA DOS REIS                                
0000007915190920221109I014873952758PABLO SANTOS DAS CHAGAS                             
0000007925190920221109I014875056954CARLA VITORIA TEIXEIRA DOS SAN                      
0000007935190920221109I014933581459KEVEM DE JESUS SILVA SANTOS                         
0000007945190920221109I014952640279JOSE ANTONIO FERNANDES DOS SAN                      
0000007955190920221109I014957184271MAX SUEL PERUNA SANTOS                              
0000007965190920221109I014990752178MARCELO MARTINS DA SILVA                            
0000007975190920221109I015070168855HEBERT ARIEL NASCIMENTO COELHO                      
0000007985190920221109I015096783271THALES DANTAS CERQUEIRA                             
0000007995190920221109I015105688132VICTOR MARTINS DE LIMA                              
0000008005190920221109I015120477279PHABLO LUIZ DE JESUS DOS SANTO                      
0000008015190920221109I015125233270PERICLES RODRIGO MACHADO DIAS                       
0000008025190920221109I015131806058THIAGO DE SOUZA SANTOS                              
0000008035190920221109I015145167273CAIC CARDOSO BARRETO                                
0000008045190920221109I015162452916ALYSSON FERNANDO SANTOS SENA                        
0000008055190920221109I015162690787IAGO BRANDAO VIEIRA                                 
0000008065190920221109I015162840207SAMUEL SANTOS GONCALVES                             
0000008075190920221109I015164533786FABIO WINDSON SANTOS COSTA OLI                      
0000008085190920221109I015236711502JAIME BARBOSA DO ESPIRITO SANT                      
0000008095190920221109I015281275279MARCOS VINICIUS ALMEIDA SILVA                       
0000008105190920221109I015284241340FILIPE DA COSTA DE OLIVEIRA                         
0000008115190920221109I015347428310BRUNO ALEX SANDRO RIBEIRO DURA                      
0000008125190920221109I015351055779LEONARDO DE JESUS DOS SANTOS                        
0000008135190920221109I015352108892EISLA MATOS DOS SANTOS CARDOSO                      
0000008145190920221109I015396926388MARIA EDUARDA MORAES BARBOSA D                      
0000008155190920221109I015447932800GUSTAVO GONCALVES REIS DE JESU                      
0000008165190920221109I015452198869GABRIELLE BARBOSA VIANA                             
0000008175190920221109I015465272272JAQUISON DOS SANTOS                                 
0000008185190920221109I015564441277RICARDO DOS SANTOS                                  
0000008195190920221109I015610241271RAFAEL DE OLIVEIRA SANTOS ROQU                      
0000008205190920221109I015674444270WEULLE KAIK DE SANTANA SANTOS                       
0000008215190920221109I015681055381LUCAS SANTOS RIOS                                   
0000008225190920221109I015683078273HERCULES DE SOUZA GOMES                             
0000008235190920221109I015701469089JOAO MATHEUS CAMPOS DA SILVA D                      
0000008245190920221109I015763641489AMON CHAGAS SATURNINO                               
0000008255190920221109I015805012514RAPHAEL HENRIQUE DE SENA CRUZ                       
0000008265190920221109I015850784148ANA BEATRIZ SANTOS ALVES                            
0000008275190920221109I016012129573DIEGO DOS SANTOS SANTANA                            
0000008285190920221109I016012681705ADILSON SANTOS MATOS                                
0000008295190920221109I016012682183ADILSON DE JESUS SANTOS                             
0000008305190920221109I016012701137ADRIEL SOUZA DOS SANTOS                             
0000008315190920221109I016012825162ANTONIO MARCOS REIS SANTOS                          
0000008325190920221109I016013007072DENILSON DE JESUS GOES                              
0000008335190920221109I016013028622DIEGO MOTA DA SILVA                                 
0000008345190920221109I016013037265DIOGENES SOUZA DOS SANTOS                           
0000008355190920221109I016013147761ELIELTON SANTOS DE SOUZA                            
0000008365190920221109I016017227395DAVID DE FRANCA SOUZA                               
0000008375190920221109I016017746856ELIVELTON PEREIRA DE SALES                          
0000008385190920221109I016018664519DANILO DE MELO                                      
0000008395190920221109I016019754392AILTON DOS SANTOS                                   
0000008405190920221109I016019926290DAVID DOS SANTOS GAMA                               
0000008415190920221109I016020121187ANDRE LUIZ BARBOSA COSTA                            
0000008425190920221109I016020208010EDSON DE JESUS MELO JUNIOR                          
0000008435190920221109I016020886035EDIELIO JUCA DE ARAUJO                              
0000008445190920221109I016020955223ELINALDO DIAS RIBEIRO                               
0000008455190920221109I016020977707HENRIQUE BARBOSA NASCIMENTO                         
0000008465190920221109I016021447736DIEGO DOS REIS SANTOS                               
0000008475190920221109I016021488807EDI CARLOS PEREIRA                                  
0000008485190920221109I016022960046ADELMO DA LUZ REIS                                  
0000008495190920221109I016022961670ADILSON GUEDES REBOUCAS                             
0000008505190920221109I016022980578ALEXANDRO PEREIRA FONSECA                           
0000008515190920221109I016023086412DEIVSON DE MATOS SANTOS                             
0000008525190920221109I016023115099EDSON NASCIMENTO LOBO                               
0000008535190920221109I016023152830HERLEN SOUZA OLIVEIRA                               
0000008545190920221109I016023467416EDSON SOARES NASCIMENTO                             
0000008555190920221109I016024630523HEBERTE CONCEICAO ROCHA                             
0000008565190920221109I016025000418EPITACIO DE FREITAS BARBOSA                         
0000008575190920221109I016027025019ANDERSON DA CONCEICAO LIMA                          
0000008585190920221109I016037604704ARLEITON DE ARAUJO LIMA                             
0000008595190920221109I016041803759ADRIANO RODRIGUES DE OLIVEIRA                       
0000008605190920221109I016043986168ROMARIO BRAZ LIMA                                   
0000008615190920221109I016044176852JARDEL DE SOUZA FERREIRA                            
0000008625190920221109I016044600123DANILO SANTOS DA SILVA                              
0000008635190920221109I016045425740ROBSON DE OLIVEIRA BATISTA                          
0000008645190920221109I016046655391JOSE ADRIANO DA COSTA COSTA                         
0000008655190920221109I016046751323LUCAS DOS SANTOS XAVIER                             
0000008665190920221109I016048024895JADSON FERREIRA DE MORAIS                           
0000008675190920221109I016048035412JARIO FERREIRA DE MORAIS                            
0000008685190920221109I016049526517CICERO DAVI GOMES                                   
0000008695190920221109I016057123272JOSE PEREIRA FILHO                                  
0000008705190920221109I016075090526PAULO GOMES DOS SANTOS                              
0000008715190920221109I016075680897EMERSON SILVA DOS SANTOS                            
0000008725190920221109I016081174515ZELIA CRISTINA FEITOZA XAVIER                       
0000008735190920221109I016088679272ELINALDO DOS SANTOS SANTANA                         
0000008745190920221109I016089187764ANDERSON TAVARES XAVIER                             
0000008755190920221109I016094130066ADAILTON DO SACRAMENTO LADISLA                      
0000008765190920221109I016094893590ALLAN SANTANA                                       
0000008775190920221109I016099526545EMERSON BRITO DOS SANTOS                            
0000008785190920221109I016100586291ADELSON DE JESUS SILVA                              
0000008795190920221109I016104544887HELIO NASCIMENTO DOS SANTOS                         
0000008805190920221109I016110032930ADENILSON DE JESUS RAMOS                            
0000008815190920221109I016110188191ANA MARIA DOS SANTOS                                
0000008825190920221109I016111093232EDILTON XAVIER PROFETA                              
0000008835190920221109I016112068169EDNILTON DE SOUZA DOS SANTOS D                      
0000008845190920221109I016114126891DIEGO NASCIMENTO DIAS                               
0000008855190920221109I016114158920EFERTON CALDAS DA SILVA                             
0000008865190920221109I016114529457DOUGLAS DE SILVA OLIVEIRA                           
0000008875190920221109I016119491865EDUARDO DE JESUS BEZERRA                            
0000008885190920221109I016121345676EDEVALDO LUSTOSA DOS SANTOS                         
0000008895190920221109I016124041376DANIEL SILVA DE ALMEIDA                             
0000008905190920221109I016124044987DANILO SILVA DE ALMEIDA                             
0000008915190920221109I016124718139EDUARDO DA SILVA SANTOS                             
0000008925190920221109I016125525288BRUNO DA PAIXAO DE SOUZA                            
0000008935190920221109I016126209479ANA RENATA RODRIGUES DA SILV                        
0000008945190920221109I016127649766AGUIGSON ANTONIO SILVA OLIVEIR                      
0000008955190920221109I016138084919DAVID RIBEIRO DOS SANTOS                            
0000008965190920221109I016145736608ANTONIO CARLOS DE SOUZA DIAS                        
0000008975190920221109I016149249728MELCIDES NASCIMENTO DOS SANTOS                      
0000008985190920221109I016154449314ERIC HENRIQUE PEREIRA DOS SANT                      
0000008995190920221109I016155761974ELISSON DOS SANTOS DE SOUZA                         
0000009005190920221109I016156188399ERON PIRES DE JESUS JUNIOR                          
0000009015190920221109I016157013193EDUARDA FATIMA DA SILVA                             
0000009025190920221109I016157419297DAVI DOS SANTOS LINHARES                            
0000009035190920221109I016157491338ANDRE LUIS SANTOS DO NASCIMENT                      
0000009045190920221109I016159117522HEVERTON VINICIUS BARBOSA GOME                      
0000009055190920221109I016161995027ANTONIO DIAS DE OLIVEIRA JUNIO                      
0000009065190920221109I016162139035HEBERT LISBOA DOS SANTOS                            
0000009075190920221109I016165735186AILTON VIEIRA DE SOUZA                              
0000009085190920221109I016168066390DANIEL SANTANA BARBOSA                              
0000009095190920221109I016176288895JOSENILTON SANTANA DA CONCEICA                      
0000009105190920221109I016178616180JARLAN JESUS DOS SANTOS                             
0000009115190920221109I016180190497JOSE NILSON DOS SANTOS                              
0000009125190920221109I016182975505JOSE CARLOS SOUZA DOS SANTOS                        
0000009135190920221109I016187065035JOHNNY DA CONCEICAO BISPO                           
0000009145190920221109I016187177976JOSE ROBERTO DE JESUS FILHO                         
0000009155190920221109I016187680457FERNANDO MOTA DA SILVA                              
0000009165190920221109I016187807392ISMAEL DE FREITAS LO                                
0000009175190920221109I016187938950JEREMIAS DE JESUS CARDEAL                           
0000009185190920221109I016188015422JORGE ALVES DA PAIXAO                               
0000009195190920221109I016188825785IVANILSON CERQUEIRA DA SILVA                        
0000009205190920221109I016189079653GILDEMBERG DOS SANTOS DA SILVA                      
0000009215190920221109I016189574913CLAUDIO SANTOS DA SILVA                             
0000009225190920221109I016190914900FLAVIANO DOS SANTOS CAVALCANTE                      
0000009235190920221109I016190998985FREDSON DOS SANTOS CAVALCANTE                       
0000009245190920221109I016191211598JAZIEL MENDES SANTOS                                
0000009255190920221109I016191422475JOSEVAN SANTOS SILVA                                
0000009265190920221109I016191514450JOSIMAR SANTOS SILVA                                
0000009275190920221109I016191880562FELIPE FERNANDES DE SOUZA                           
0000009285190920221109I016193567187JADILSON SANTOS DA SILVA                            
0000009295190920221109I016194246406GILDEAN DOS SANTOS ANDRADE                          
0000009305190920221109I016195140504JAILSON CARLOS DOS SANTOS                           
0000009315190920221109I016195756130GEOVANE SILVA DOS SANTOS                            
0000009325190920221109I016195801136GILVAN DOS SANTOS LINHARES                          
0000009335190920221109I016196152506YAGO MUNIZ DA CONCEICAO                             
0000009345190920221109I016196359720GILBERTO FELIX DA SILVA JUNIOR                      
0000009355190920221109I016196559096JULIO MARCIO CASTRO RIBEIRO                         
0000009365190920221109I016196608135CARLOS ALBERTO COSTA SILVEIRA                       
0000009375190920221109I016196655184CLAUDIO HENRIQUE CONCEICAO DA                       
0000009385190920221109I016198015131JAILTON ALMEIDA DO NASCIMENTO                       
0000009395190920221109I016198039901GEOMAR BARBOSA DOS SANTOS                           
0000009405190920221109I016198161081CLEBER SILVA DE JESUS                               
0000009415190920221109I016198385451ISMAEL BATISTA NUNES                                
0000009425190920221109I016199409621FRANCISCO ASSIS DE JESUS JUNIO                      
0000009435190920221109I016199437366GUSTAVO SANTOS DA CONCEICAO                         
0000009445190920221109I016199966571JACKSON DOS SANTOS BEZERRA                          
0000009455190920221109I016200149950ISAAC MENEZES LOPES                                 
0000009465190920221109I016200812862JAILSON FERREIRA DE MORAIS                          
0000009475190920221109I016201821032JAILSON DE JESUS SOUZA                              
0000009485190920221109I016201898132JORGE FERREIRA DOS SANTOS JUNI                      
0000009495190920221109I016202082055JOSE BENEDITO BISPO DE CARVALH                      
0000009505190920221109I016202352761JOILSON SOUZA SANTOS                                
0000009515190920221109I016204749006KASSIA MAIA GADELHA                                 
0000009525190920221109I016211069783GLEISON DE CARVALHO DOS SANTOS                      
0000009535190920221109I016211099291JUTAI DE MENEZES LEAO                               
0000009545190920221109I016211697636CLEIDSON MACEDO DE OLIVEIRA                         
0000009555190920221109I016217995205JAILSON ALMEIDA DO NASCIMENTO                       
0000009565190920221109I016218070299GEORGE SANTOS DE BRITO                              
0000009575190920221109I016218123457JILMAR BISPO DOS SANTOS NASCIM                      
0000009585190920221109I016218126200GILMARIO JESUS DOS SANTOS                           
0000009595190920221109I016218243851JOSE RODRIGO ARAUJO DA CONCEIC                      
0000009605190920221109I016218364829JOANDRO DA CONCEICAO LIMA                           
0000009615190920221109I016218432190JULIO RAMOS DOS SANTOS                              
0000009625190920221109I016229093090GILVAN SANTANA SILVA                                
0000009635190920221109I016232407963JERLIAN SOUZA SANTOS                                
0000009645190920221109I016234869336GILSON DOS ANJOS DE ARAUJO                          
0000009655190920221109I016235147148JOAO DE ALMEIDA BATISTA                             
0000009665190920221109I016237724711CARLOS ANDRE MAIA DA PAIXAO                         
0000009675190920221109I016237896024IGOR DA SILVA SANTOS                                
0000009685190920221109I016238408902JOSE CLEVIO GOMES DOS SANTOS                        
0000009695190920221109I016238412683JOSE DOMINGOS DOS SANTOS SILVA                      
0000009705190920221109I016238674661GLEIDSON PEREIRA DE SOUZA OLIV                      
0000009715190920221109I016240948307GABRIEL LOPES BISPO                                 
0000009725190920221109I016245976236IZAIAS ROSARIO SILVA DA CONCEI                      
0000009735190920221109I016246260668GUSTAVO LISBOA LIMA                                 
0000009745190920221109I016246492135JOILSON DE JESUS SILVA                              
0000009755190920221109I016246718141JOSEVAL DE JESUS PARAGUASSU                         
0000009765190920221109I016246751041JOSE CRISPIM LOPES XAVIER                           
0000009775190920221109I016248041610JOSE GILTON DA SILVA RODRIGUES                      
0000009785190920221109I016249575716JACKSON CONCEICAO PINTO DA SIL                      
0000009795190920221109I016249910566JOSE NILTON CONCEICAO DA SILVA                      
0000009805190920221109I016254546346FRANCLIN DE JESUS DE BRITO                          
0000009815190920221109I016254561957JACSON BORGES SILVA                                 
0000009825190920221109I016261426873GIVALNEY DOS SANTOS                                 
0000009835190920221109I016261750557JOSIMEIRE ROCHA MOTA                                
0000009845190920221109I016262085913GESSE MOREIRA DOS SANTOS                            
0000009855190920221109I016263899264JOSE PAULO DOS SANTOS PASSOS                        
0000009865190920221109I016264417824FELIPE SOUZA SOLEDADE DOS SANT                      
0000009875190920221109I016277755820JOSE ADRIEL PEREIRA ALVES                           
0000009885190920221109I016281747071KAMILLE LAURA FERREIRA CUNHA                        
0000009895190920221109I016281897413ISMAEL CARMO DOS SANTOS VIANA                       
0000009905190920221109I016281955332CAIO PINHEIRO DE JESUS                              
0000009915190920221109I016282230722KAIO DANNIEL FRANCA LIMA                            
0000009925190920221109I016282656827GILMAR DOS SANTOS JUNIOR                            
0000009935190920221109I016282760837JOSE SILVA XAVIER                                   
0000009945190920221109I016283093982JOSE JUNIO CRUZ NEVES DOS SANT                      
0000009955190920221109I016284258780JOSE EDUARDO VITORINO DA SILVA                      
0000009965190920221109I016284686111FABIO SOUZA DA SILVA                                
0000009975190920221109I016286125885JIVANDILSON DOS SANTOS DE SOUZ                      
0000009985190920221109I016286879189JEFFERSON CONCEICAO DOS SANTOS                      
0000009995190920221109I016287369265FLORISVALDO FRANCINO VIEIRA DE                      
0000010005190920221109I016287397366ISTARLE BISPO DOS SANTOS                            
0000010015190920221109I016290920031JULIANO DOS SANTOS SOUZA                            
0000010025190920221109I016294742758YURI NASCIMENTO SANTOS                              
0000010035190920221109I016298259202YAGO RODOLFO XAVIER DOS SANTOS                      
0000010045190920221109I016301658346JOADSON DOS SANTOS ZACARIAS AL                      
0000010055190920221109I016303868356KAIQUE TEIXEIRA DOS REIS                            
0000010065190920221109I016305559253FERNANDA DA PAIXAO SANTOS                           
0000010075190920221109I016305963410IGOR FELIPE DA ANUNCIACAO OLIV                      
0000010085190920221109I016307609398KAHYLANE LEAL LOPES SANTOS                          
0000010095190920221109I016308554538EZEQUIEL DE SANTANA SILVA                           
0000010105190920221109I016309353765GUILHERME LIMA DOS SANTOS                           
0000010115190920221109I016311192374CARLOS ANTONIO DOS SANTOS BARB                      
0000010125190920221109I016312991149STEFANE COELHO MIRANDA                              
0000010135190920221109I016322725581JAIR CONCEICAO DE JESUS                             
0000010145190920221109I016327437975KAILANE IZIDIO SANTOS                               
0000010155190920221109I016329209805YCARO DA GAMA ROSAS                                 
0000010165190920221109I016331402048GABRIEL SILVA DE ALMEIDA                            
0000010175190920221109I016332951428JUNIOR DA CONCEICAO BISPO NEVE                      
0000010185190920221109I016346871901JAELSON DA SILVA TEIXEIRA                           
0000010195190920221109I016358124820LUCIANO GOMES SILVA                                 
0000010205190920221109I016362465785LEANDRO BEZERRA DE SOUSA                            
0000010215190920221109I016363364664LEANDRO DOS SANTOS                                  
0000010225190920221109I016363389918LENILSON SANTOS DE JESUS                            
0000010235190920221109I016364967869MARCOS BISPO DOS SANTOS                             
0000010245190920221109I016369362523LEANDRO JOSE DE JESUS SANTOS                        
0000010255190920221109I016369663523MARCELO DOS SANTOS DE SANTANA                       
0000010265190920221109I016370182347LEANDRO SOUZA DO ROSARIO SILVA                      
0000010275190920221109I016370583368MARLON VITORIO SILVA                                
0000010285190920221109I016371164873MARCOS ANTONIO SANTANA SILVEIR                      
0000010295190920221109I016371386272LUAN CARVALHO DOS SANTOS                            
0000010305190920221109I016372320992LEANDRO BANDEIRA SANTOS                             
0000010315190920221109I016383564529MAGNO DOS SANTOS BISPO                              
0000010325190920221109I016384499003MIGUEL ALVES DOS SANTOS JUNIOR                      
0000010335190920221109I016388346376LEOMI SILVA DE SOUZA                                
0000010345190920221109I016391397288CARLOS WILKER CONCEICAO SANTOS                      
0000010355190920221109I016391708305CARLOS ANTONIO SALES FERREIRA                       
0000010365190920221109I016391865648LEONARDO SANTOS BARBOSA                             
0000010375190920221109I016391906476LUA PAIVA DE ALMEIDA                                
0000010385190920221109I016398212860MARCOS ADRIANO SANTOS ANDRADE                       
0000010395190920221109I016408860983MAICO DE OLIVEIRA ALVES                             
0000010405190920221109I016412426044LUCAS DE BARROS DOS SANTOS                          
0000010415190920221109I016413529963LUIS CARLOS DOS SANTOS JUNIOR                       
0000010425190920221109I016415577108MARCO ANTONIO RAMOS MOURA                           
0000010435190920221109I016416388317LEONAM CRUZ DA CONCEICAO                            
0000010445190920221109I016416987164MANOEL VITOR DE PAULA SANTOS                        
0000010455190920221109I016418514247MARIVAN VIEIRA PINHO                                
0000010465190920221109I016419382808CLAUDEMIRO VIEIRA DA SILVA                          
0000010475190920221109I016424683438LUCIANO PEREIRA DE BRITO                            
0000010485190920221109I016426536122MOISES RUBEM SANTOS MACEDO                          
0000010495190920221109I016429214908CARLOS ALBERTO DE JESUS DOS SA                      
0000010505190920221109I016430248527MANOEL CONCEICAO DA SILVA                           
0000010515190920221109I016431617453MARCOS PAULO MARQUES DOS SANTO                      
0000010525190920221109I016433042679LENTINI ARAUJO PANDINI SANTANA                      
0000010535190920221109I016434916230MAURICIO SANTANA ANDRADE                            
0000010545190920221109I016438675866MATHEUS DA CONCEICAO NUNES                          
0000010555190920221109I016438677656MAURICIO CORREIA DOS SANTOS JU                      
0000010565190920221109I016441554500KELVIN DOS SANTOS SANTANA                           
0000010575190920221109I016451564169LUIS DA SILVA RODRIGUES                             
0000010585190920221109I016455665903MARCIO LIMA DE OLIVEIRA                             
0000010595190920221109I016456132739CARLOS HENRIQUE SILVA SOARES                        
0000010605190920221109I016456355258LUCIMAR NEPOMUCENO SACRAMENTO                       
0000010615190920221109I016457582150LUCAS NUNES MAGALHAES                               
0000010625190920221109I016461401858CARLOS JOSE BISPO DE SOUZA                          
0000010635190920221109I016462477602LUCAS PALMEIRA DOS SANTOS                           
0000010645190920221109I016463244172MARCOS SANTANA DE JESUS OLIVEI                      
0000010655190920221109I016466865909CLESSIO BARBOSA SANTOS                              
0000010665190920221109I016469731334CARLOS EDUARDO TELES RODRIGUES                      
0000010675190920221109I016470901809CRISTIAN BRANDAO TAVARES                            
0000010685190920221109I016473469304KEVIN SENA PESSOA                                   
0000010695190920221109I016477423929MARCIO DOS SANTOS SILVESTRE                         
0000010705190920221109I016483861886LEVI DOS SANTOS MACEDO                              
0000010715190920221109I016489923573KEVEN SANTANA FREITAS                               
0000010725190920221109I016497704982LUIZ VINICIUS BARROS COSTA                          
0000010735190920221109I016501525218LUIS HENRIQUE PEREIRA ALMEIDA                       
0000010745190920221109I016503396733MARIANGELA EVANGELISTA PINTO                        
0000010755190920221109I016508502264MATEUS DA SILVA SANTOS                              
0000010765190920221109I016522791340MAURILIO TAVARES ARAUJO NETO                        
0000010775190920221109I016529302000PAULO ELISSON DANTAS                                
0000010785190920221109I016534213975SUZIANE SILVA DOS ANJOS                             
0000010795190920221109I016535262252RAPHAEL COUTINHO DA SILVA                           
0000010805190920221109I016535953131ROBERVALDO BEZERRA DA SILVA                         
0000010815190920221109I016537794634ROMENILDO ALVES DOS SANTOS                          
0000010825190920221109I016537870403SAMUEL SOARES DA PAES                               
0000010835190920221109I016537900647SIDNEY DE JESUS CONCEICAO                           
0000010845190920221109I016537983798TATIANE PEREIRA DA SILVA                            
0000010855190920221109I016538015728UBIRATAN GOMES ALVES                                
0000010865190920221109I016538087419WELINGTON BISPO ROCHA                               
0000010875190920221109I016538089993WELLITON PAULO DA SILVA                             
0000010885190920221109I016538103422WESLEY FERREIRA DE MATOS                            
0000010895190920221109I016538364102THIAGO TAVARES NASCIMENTO                           
0000010905190920221109I016538401164VALTIELI FIGUEIREDO MACEDO                          
0000010915190920221109I016538624880PAULO MARCIEL DE JESUS ALMEIDA                      
0000010925190920221109I016539262605TYRONE SANTANA DE ALMEIDA                           
0000010935190920221109I016539365323VALDOMIRO DE JESUS FERREIRA                         
0000010945190920221109I016541375772TASSIO DO NASCIMENTO RIBEIRO                        
0000010955190920221109I016543602210TIAGO COSTA JESUS                                   
0000010965190920221109I016544706788RODRIGO DA SILVA FERREIRA                           
0000010975190920221109I016546446791WELLINGTON DE OLIVEIRA TAVARES                      
0000010985190920221109I016547775772MOISES SANTOS BITENCOURT                            
0000010995190920221109I016548173199MIROVALDO OLIVEIRA DOS SANTOS                       
0000011005190920221109I016549338515ROMARIO CONCEICAO DOS SANTOS                        
0000011015190920221109I016549342814RONALDO CONCEICAO DOS SANTOS                        
0000011025190920221109I016551528695PABLO DE SANTANA MIRANDA                            
0000011035190920221109I016551691332THAILIS TAIRONE DE OLIVEIRA SO                      
0000011045190920221109I016554481819UANDERSON ECA DOS SANTOS                            
0000011055190920221109I016555056178RAFAEL DOS SANTOS CAMPOS                            
0000011065190920221109I016558481457SAMUEL ROBERTO DA SILVA                             
0000011075190920221109I016560039138SERGIO DOS SANTOS VIEIRA                            
0000011085190920221109I016560753477RONILDO CARVALHO DE SOUZA                           
0000011095190920221109I016560766803SERGIO SILVA GOMES                                  
0000011105190920221109I016561579500SANDRO MACEDO DA SILVA                              
0000011115190920221109I016566571664PAULO HENRIQUE SANTOS DA SILVA                      
0000011125190920221109I016566850237ORLANDO ALVES BATISTA                               
0000011135190920221109I016567587521PAULO ROGERIO SILVA DOS REIS                        
0000011145190920221109I016567662299RAILSON DOS SANTOS                                  
0000011155190920221109I016567984032ISLAM LIMA NEPOMUCENO                               
0000011165190920221109I016568057224VALNEI NUNES DE FRANCA                              
0000011175190920221109I016568071480WENDSON BORGES SOUZA                                
0000011185190920221109I016573601646RONIERIO RODRIGUES DE JESUS                         
0000011195190920221109I016573952589TIAGO RODRIGUES DE JESUS SANTO                      
0000011205190920221109I016578707000RODRIGO OLIVEIRA CARNEIRO                           
0000011215190920221109I016579273934VALMIRO DA SILVA SANTOS SOUZA                       
0000011225190920221109I016582676513SIDIVAN PEREIRA DE JESUS                            
0000011235190920221109I016583190126NADJON SOUZA CARVALHO                               
0000011245190920221109I016587480153RODRIGO BATISTA DOS REIS                            
0000011255190920221109I016587528229THIAGO DA SILVA SANTOS                              
